:100000000C944B000C9468000C9468000C946800ED
:100010000C9401060C9468000C9468000C94680021
:100020000C9468000C9468000C9468000C946800B0
:100030000C9468000C9468000C9468000C946800A0
:100040000C9440060C9468000C9468000C946800B2
:100050000C9468000C9468000C9468000C94680080
:100060000C9468000C946800084AD73B3BCE016EA4
:1000700084BCBFFDC12F3D6C74319ABD56833DDAFF
:100080003D00C77F11BED9E4BB4C3E916BAAAABE0E
:10009000000000803F0011241FBECFEFD8E0DEBF7C
:1000A000CDBF11E0A0E0B1E0E6E4FAE102C00590C6
:1000B0000D92A232B107D9F711E0A2E2B1E001C07E
:1000C0001D92A13AB107E1F70E946A000C94210D3C
:1000D0000C940000CF93DF93549A5C980E94240AFA
:1000E0000E94FA0562E370E080E090E00E94FC0666
:1000F00080E091E00E947304C0E3D5E70E94D30939
:100100000E947507892BB9F40E94C707AA2797FD9B
:10011000A095BA2FBC01CD010E94FA040E947F076E
:10012000AA2797FDA095BA2FBC01CD010E94FA0421
:100130000E94510402C00E94FB09CE010197F1F711
:10014000DDCF109222011092230181E080932401DF
:100150001092250110922701109226010895109205
:1001600025010895109227011092260108951092FA
:1001700025011092270110922601089580912501F2
:1001800008958091260190912701089580E58A9530
:10019000F1F7089580EA8A95F1F7089588E08A9545
:1001A000F1F70895813011F43D9A08953D9808952E
:1001B000813011F4459A089545980895813019F4D5
:1001C000459A3D98089545983D9A089586B190E0E6
:1001D00025E0969587952A95E1F7817008958130FD
:1001E00011F43C9A08953C980895813011F4449A92
:1001F000089544980895813019F4449A3C980895DC
:1002000044983C9A089586B190E034E0969587959D
:100210003A95E1F7817008953D9880E00E94DE00F4
:1002200008953C9880E00E94FB0008953D9A3C9818
:1002300081E00E94DE0081E00E94FB0008951F9390
:1002400081E00E94DE0081E00E94FB0010E5812F2A
:100250008A95F1F780E00E94FB00812F8A95F1F7E3
:1002600080E00E94DE001A95F1F71F9108951F9318
:1002700080E00E94DE0080E00E94FB0010E5812FFC
:100280008A95F1F781E00E94DE00812F8A95F1F7CF
:1002900081E00E94FB001A95F1F71F910895EF92FB
:1002A000FF920F931F93082F10E050E5F52E48E0C2
:1002B000E42E07FF02C081E001C080E00E94FB0045
:1002C0008F2D8A95F1F781E00E94DE008F2D8A95AF
:1002D000F1F780E00E94DE008E2D8A95F1F71F5F16
:1002E000183011F0000FE5CF1F910F91FF90EF90A4
:1002F0000895FF920F931F9381E00E94FB0010E08E
:1003000000E060E5F62E110F8F2D8A95F1F781E060
:100310000E94DE00349911608F2D8A95F1F780E0FC
:100320000E94DE000F5F083071F780E58A95F1F7D3
:1003300081E00E94DE00812F1F910F91FF900895B0
:100340001F9380E00E94FB0010E5812F8A95F1F752
:1003500081E00E94DE001A95F1F780E00E94DE0045
:100360001F9108951F9381E00E94FB0010E5812FEB
:100370008A95F1F781E00E94DE001A95F1F780E09E
:100380000E94DE001F9108950F931F9381E00E9449
:10039000FB0000E5802F8A95F1F781E00E94DE00E6
:1003A00016B10A95F1F780E00E94DE0088E08A9598
:1003B000F1F712951F701095812F81701F910F9189
:1003C00008951F93182F0E941F01812F0E944F0133
:1003D0000E94C401182F0E943701812F1F91089598
:1003E0001F9310E0812F0E94E101813011F4812FD1
:1003F00003C01F5F1F3FB1F71F910895DF92EF9277
:10040000FF920F931F93182F0E941F0180912201CA
:100410000E944F010E94C401E82E812F0E944F01CB
:100420000E94C401F82E0E9437010E941F01809192
:1004300023010E944F010E94C401182F0E947901DC
:10044000D82E0E94C401082F0E943701FF0C110F03
:10045000110F1F291E29000F000F000F012B07305D
:1004600021F4109225018D2D0DC081E0809325018E
:100470008091260190912701019690932701809306
:1004800026018FEF1F910F91FF90EF90DF9008955D
:10049000EF92FF920F931F93182FF62E0E941F01C9
:1004A000809122010E944F010E94C401E82E812FF9
:1004B0000E944F010E94C401082F8F2D0E944F01FE
:1004C0000E94C401182F0E943701000F110F110F55
:1004D000102B1E29173019F4109225010CC082E050
:1004E0008093250180912601909127010196909398
:1004F0002701809326011F910F91FF90EF9008959F
:10050000109222011092230181E080932401109225
:10051000250110922701109226010E9416010E94C7
:10052000F001809322018F5F809323010895109240
:1005300028011092290181E080932A0180E090E057
:10054000FC01E85DFE4F1382019680329105C1F7F0
:1005500010924B01ECE4F1E0119281E0E435F807F0
:10056000D9F71082089514BC15BC10926E008FEF5D
:1005700085BBE8E6F0E0808182608083ECE6F0E015
:10058000808180648083D99A789408958FEF85BBA9
:10059000EEE6F0E0108288EC86BD84E085BD81E067
:1005A00085BB8083089510926E0015BC16BC08951B
:1005B000559A5D9A3E98469A08955D9A08955D9879
:1005C0000895813011F45D9A08955D98089586B17B
:1005D00090E026E0969587952A95E1F78170089539
:1005E0009C0116BC81E085BD86B58233E8F316BC5C
:1005F00086B590E082179307D8F315BC08958091D3
:100600001C0190911D010E94F002089580911E012D
:1006100090911F010E94F002089580912001909115
:1006200021010E94F0020895DF92EF92FF920F9352
:100630001F93DF93CF93CDB7DEB72A970FB6F89409
:10064000DEBF0FBECDBFFE0131969AE0DF011D92E5
:100650009A95E9F791E09A87FE01329620E030E022
:10066000482F50E061E0CA01022E02C0959587959F
:100670000A94E2F780FF02C0608301C010822F5FFE
:100680003F4F31962830310571F7DFB6F8948E016F
:100690000F5F1F4F3BE0E32EF12CEC0EFD1EF80127
:1006A0008081813011F45D9A01C05D980E94FF0243
:1006B0000F5F1F4F0E151F0591F7DFBE2A960FB66D
:1006C000F894DEBF0FBECDBFCF91DF911F910F9188
:1006D000FF90EF90DF900895FF920F931F93369B4A
:1006E00021C082E017C00E940603369900681730C7
:1006F00009F006951F5F1830B1F70E94060386B116
:10070000F6FC07C086FF05C000932901109228015E
:1007100003C081E080932801809129011F910F91EE
:10072000FF9008950E940D03F6B000E010E0DBCFCB
:10073000809129010895109229010895809329013B
:100740000895BF92CF92DF92EF92FF920F931F9383
:10075000CF93DF937B018C018FEFE816F104010545
:10076000110509F030F4C8E0D0E062E0C62ED12CCB
:1007700014C080E0E81680E0F80681E0080780E019
:10078000180730F0C0E2D0E058E0C52ED12C05C0EB
:10079000C0E1D0E044E0C42ED12C80E30E941403D9
:1007A00088E70E941403BB2417C02497D801C7010F
:1007B0000C2E04C0B695A795979587950A94D2F705
:1007C00090E08F7090708A30910510F0C79601C04C
:1007D000C0960E941403B3948B2D90E08C159D0558
:1007E00020F3DF91CF911F910F91FF90EF90DF9059
:1007F000CF90BF900895AF92BF92CF92DF92EF92C9
:10080000FF920F931F93CF93DF937B018C016F3F78
:1008100071058105910509F018F4F7E0DF2E0DC090
:10082000603030E0730731E0830730E0930718F061
:10083000EFE1DE2E02C07FE0D72E80E30E9414039A
:1008400082E60E941403C0E0D0E0CD2CDD245601E6
:100850000894A11CB11CC6018C1B9D0BA80197011B
:1008600004C056954795379527958A95D2F7DA01B2
:10087000C90181709070892B11F081E301C080E380
:100880000E9414032196CA15DB0529F7DF91CF9149
:100890001F910F91FF90EF90DF90CF90BF90AF909E
:1008A00008958DE00E9414038AE00E9414030895C5
:1008B00080E20E94140308958CE20E9414030895BC
:1008C0001F93CF93DF93EC0110E003C00E94140349
:1008D0001F5FFE01E10FF11D80818823B9F7DF91D1
:1008E000CF911F9108950E9460040E9451040895C1
:1008F0000E9460040E94580408950E9460040E94AF
:100900005C040895BF92CF92DF92EF92FF920F9313
:100910001F936B017C01611571058105910531F40F
:1009200010924C0181E08093540123C0BB240B2D15
:1009300010E0085D1E4FC701B6012AE030E040E03C
:1009400050E00E94D00CF80164A3C701B6012AE070
:1009500030E040E050E00E94D00CC901DA016C01A7
:100960007D01B394C114D104E104F10401F7B09204
:1009700054011F910F91FF90EF90DF90CF90BF90A7
:1009800008951F931091540109C01150E12FF0E018
:10099000E85DFE4F84A1805D0E9414031123A9F736
:1009A0001F910895EF92FF920F931F937B018C018B
:1009B00097FF0BC08DE20E94140310950095F094F0
:1009C000E094E11CF11C011D111DC801B7010E943A
:1009D00082040E94C1041F910F91FF90EF9008952F
:1009E0000E94D2040E94510408950E94D2040E94E1
:1009F000580408950E94D2048EE091E00E946004A1
:100A000008950E94A1030E94510408950E94A10329
:100A10000E94580408950E94A1038EE091E00E9474
:100A2000600408950E94FB030E94510408950E94EF
:100A3000FB030E94580408950E94FB038EE091E09E
:100A40000E9460040895EF92FF920F931F937A0122
:100A50008B010E9460040E945804C801B7010E94E3
:100A6000F0041F910F91FF90EF900895EF92FF9285
:100A70000F931F937A018B010E9460040E94580417
:100A8000C801B7010E94F5041F910F91FF90EF90EC
:100A90000895EF92FF920F931F937A018B010E94AA
:100AA00060040E945804C801B7010E94FA041F9113
:100AB0000F91FF90EF900895EF92FF920F931F9385
:100AC0007A018B010E9460040E945804C801B7019A
:100AD0000E9401051F910F91FF90EF900895EF92F2
:100AE000FF920F931F937A018B010E9460040E9472
:100AF0005804C801B7010E9406051F910F91FF908D
:100B0000EF900895EF92FF920F931F937A018B015C
:100B10000E9460040E945804C801B7010E940B059E
:100B20001F910F91FF90EF900895EF92FF920F9316
:100B30001F937A018B010E9460040E945804C8012F
:100B4000B7010E9412051F910F91FF90EF90089539
:100B5000EF92FF920F931F937A018B010E94600422
:100B60000E945804C801B7010E9417051F910F91F8
:100B7000FF90EF900895EF92FF920F931F937A01E9
:100B80008B010E9460040E945804C801B7010E94B2
:100B90001C051F910F91FF90EF900895E8E2F1E09E
:100BA000E80FF11D8381089580914B01089580E045
:100BB00090E0FC01E85DFE4F1382019680329105C2
:100BC000C1F710924B01089580912A0108958091F8
:100BD0002A01882311F090E008C080914B0190E039
:100BE000882309F491E081E09827892F0895809166
:100BF0004B0108950E9497020E94B3020E94D802FE
:100C000008951F920F920FB60F9211242F933F93C6
:100C10004F935F936F937F938F939F93AF93BF9304
:100C2000EF93FF9381E080932A010E946C03982F39
:100C300080912801882399F4E0914B01F0E0E85D70
:100C4000FE4F938380914B018F5F80934B01809186
:100C50004B01813210F010924B010E94C602FF91AD
:100C6000EF91BF91AF919F918F917F916F915F9124
:100C70004F913F912F910F900FBE0F901F9018959D
:100C80001F920F920FB60F92112410926E0015BC96
:100C900016BC10922A010F900FBE0F901F9018954E
:100CA000E5E5F1E01082118212821382148215822E
:100CB000168217821086399681E0EB38F80791F793
:100CC000089590E0FC0123E0EE0FFF1F2A95E1F765
:100CD000E80FF91FEB5AFE4F6083089590E0FC0186
:100CE00033E0EE0FFF1F3A95E1F7E80FF91FEB5ADB
:100CF000FE4F808108952F923F924F925F926F92A4
:100D00007F928F929F92AF92BF92CF92DF92EF929B
:100D1000FF920F931F931A012B0190E06C0153E097
:100D2000CC0CDD1C5A95E1F7C80ED91E85E591E083
:100D3000C80ED91EF6012081622E772488249924BA
:100D400064E670E0621B7109882777FD8095982F13
:100D500045E0A42EB12CAC0CBD1C25813681478109
:100D600050850E949E0C7B018C01C201B101A4013F
:100D700093010E949E0CE60EF71E081F191FC80162
:100D8000B70124E630E040E050E00E94F20CCA01D6
:100D9000F6012583F501318342839383B9011F91C5
:100DA0000F91FF90EF90DF90CF90BF90AF909F900A
:100DB0008F907F906F905F904F903F902F9008950D
:100DC0000E9450060895A0E0B0E0BC01CD0121E4EE
:100DD00033E040E050E00E949E0C6051764B8D4F16
:100DE0009F4F24E630E040E050E00E94D00C30936A
:100DF00089002093880008959B01AC01219A60E648
:100E000073EE86E190E00E94D00C21503040309388
:100E10008700209386008CED95E090938900809365
:100E2000880082E8809380008AE18093810080E0DE
:100E300090E00E94E30688EE93E02CE231E0F901B5
:100E40003197F1F70197D9F7089510928C0110921C
:100E50008B0110928E0110928D01109290011092D0
:100E60008F011092920110929101109294011092B0
:100E70009301109296011092950110929801109290
:100E8000970110929A011092990110929C01109270
:100E90009B0110929E0110929D011092A001109250
:100EA0009F01089580918B0190918C01089580910C
:100EB0008D0190918E01089580918F019091900104
:100EC00008958091910190919201089580919301EC
:100ED00090919401089580919501909196010895C3
:100EE00080919D0190919E01089580919F01909124
:100EF000A00108951092A00110929F010895EF9211
:100F0000FF920F931F9380919F019091A001892BD5
:100F100091F560918D0170918E01882777FD809504
:100F2000982F0E94200B7B018C0160918F017091A2
:100F30009001882777FD8095982F0E94200B9B01B8
:100F4000AC01C801B7010E94850A0E945D0A20E039
:100F500030E040E251E40E94D80B23E333E345E65E
:100F600052E40E94D80B0E94ED0A9B0170939A01F3
:100F70006093990106C010929A011092990120E0A5
:100F800030E0C9011F910F91FF90EF900895EF920B
:100F9000FF920F931F9380919F019091A001892B45
:100FA00091F560918B0170918C01882777FD809578
:100FB000982F0E94200B7B018C0160918F01709112
:100FC0009001882777FD8095982F0E94200B9B0128
:100FD000AC01C801B7010E94850A0E945D0A20E0A9
:100FE00030E040E251E40E94D80B23E333E345E6CE
:100FF00052E40E94D80B0E94ED0A9B017093980165
:101000006093970106C0109298011092970120E01A
:1010100030E0C9011F910F91FF90EF9008958BE68A
:101020000E94FE010895FF920F931F9381E40E9496
:10103000FE01F82E0E94BE00182F82E40E94FE01DD
:10104000082F0E94BE00112381F4882371F49F2D84
:1010500080E0202F30E0822B932B64E571E00E942A
:10106000BD0C9B012C5D3F4F08C081E290E0909346
:10107000A00180939F0120E030E030939E012093F7
:101080009D01C9011F910F91FF900895AF92BF92EA
:10109000CF92DF92EF92FF920F931F9387E40E940B
:1010A000FE01D82E0E94BE00B82EFD2CEE2488E44E
:1010B0000E94FE01C82E0E94BE00A82EDD24EC284E
:1010C000FD280027F7FC0095102F85E0B801A70147
:1010D0000E947B06BB2011F4AA2041F083E190E03E
:1010E0009093A00180939F0160E070E0709396015F
:1010F00060939501CB011F910F91FF90EF90DF90CE
:10110000CF90BF90AF900895AF92BF92CF92DF92F1
:10111000EF92FF920F931F9385E40E94FE01D82E59
:101120000E94BE00B82EFD2CEE2486E40E94FE0133
:10113000C82E0E94BE00A82EDD24EC28FD28002722
:10114000F7FC0095102F84E0B801A7010E947B06F0
:10115000BB2011F4AA2041F082E190E09093A0011D
:1011600080939F0160E070E070939401609393011D
:10117000CB011F910F91FF90EF90DF90CF90BF9028
:10118000AF900895AF92BF92CF92DF92EF92FF920D
:101190000F931F9383E40E94FE01D82E0E94BE008D
:1011A000B82EFD2CEE2484E40E94FE01C82E0E947D
:1011B000BE00A82EDD24EC28FD280027F7FC0095B2
:1011C000102F83E0B801A7010E947B06BB2011F419
:1011D000AA2041F081E190E09093A00180939F01CB
:1011E00060E070E07093920160939101CB011F91D8
:1011F0000F91FF90EF90DF90CF90BF90AF90089548
:1012000080919F019091A001892B11F40E94C20846
:1012100080919F019091A001892B11F40E94840874
:1012200080919F019091A001892B11F40E944608A2
:101230000895AF92BF92CF92DF92EF92FF920F93F9
:101240001F938FE30E94FE01D82E0E94BE00B82E8D
:10125000FD2CEE2480E40E94FE01C82E0E94BE00F8
:10126000A82EDD24EC28FD280027F7FC0095102F80
:1012700082E0B801A7010E947B06BB2011F4AA20DE
:1012800041F083E090E09093A00180939F0160E0A3
:1012900070E07093900160938F01CB011F910F91CB
:1012A000FF90EF90DF90CF90BF90AF900895AF92F6
:1012B000BF92CF92DF92EF92FF920F931F938DE335
:1012C0000E94FE01D82E0E94BE00B82EFD2CEE24F6
:1012D0008EE30E94FE01C82E0E94BE00A82EDD24CF
:1012E000EC28FD280027F7FC0095102F81E0B801BD
:1012F000A7010E947B06BB2011F4AA2041F082E0E6
:1013000090E09093A00180939F0160E070E0709363
:101310008E0160938D01CB011F910F91FF90EF9093
:10132000DF90CF90BF90AF900895AF92BF92CF92D1
:10133000DF92EF92FF920F931F938BE30E94FE01C7
:10134000D82E0E94BE00B82EFD2CEE248CE30E9405
:10135000FE01C82E0E94BE00A82EDD24EC28FD2828
:101360000027F7FC0095102F80E0B801A7010E942C
:101370007B06BB2011F4AA2041F081E090E090931D
:10138000A00180939F0160E070E070938C016093F6
:101390008B01CB011F910F91FF90EF90DF90CF90C9
:1013A000BF90AF90089580919F019091A001892BEB
:1013B00011F40E94950980919F019091A001892BC1
:1013C00011F40E94570980919F019091A001892BEF
:1013D00011F40E94190908950E94D3090E9400097E
:1013E00008958BE60E94FE0186FF04C08BE660E054
:1013F0000E9448020895FF920F931F930E94B70026
:10140000F0909F011092A00110929F0100E717E158
:10141000C8010197F1F70E943701C8010197F1F760
:101420000E94F109C8010197F1F70E94EC098BE6CF
:101430000E94FE01882321F0F0929F011092A001EA
:101440001F910F91FF9008950F931F930E948002A8
:1014500000E315E7C8010197F1F70E9425070E94F4
:10146000F109C8010197F1F70E94EC090E94E0061A
:1014700080E06AE00E94610681E06AE00E94610605
:1014800082E06AE00E94610683E06AE00E946106F1
:1014900084E06AE00E94610685E06AE00E946106DD
:1014A0001F910F9108958BE60E94FE0186FD04C0F6
:1014B0008BE660E40E9448020895DF93DD27B92F90
:1014C000BF7740E85FE31616170648075B0710F47E
:1014D000D92F67D19F938F937F936F93CCD1E8E6F9
:1014E000F0E0F2D024D12F913F914F915F916CD1D8
:1014F000DD2349F09058A2EA2AED3FE049EC5FE392
:10150000D0785D27C8D1DF9112C10CD010C108D1AD
:1015100040F0FFD030F021F45F3F19F0CCC0511102
:101520003AC1CFC015D198F39923C9F35523B1F32C
:10153000951B550BBB27AA2762177307840738F042
:101540009F5F5F4F220F331F441FAA1FA9F333D0A1
:101550000E2E3AF0E0E830D091505040E695001C55
:10156000CAF729D0FE2F27D0660F771F881FBB1F11
:10157000261737074807AB07B0E809F0BB0B802DEB
:10158000BF01FF2793585F4F2AF09E3F510568F037
:1015900092C001C15F3FECF3983EDCF386957795EE
:1015A0006795B795F7959F5FC9F7880F911D969539
:1015B000879597F90895E1E0660F771F881FBB1F95
:1015C000621773078407BA0720F0621B730B840B42
:1015D000BA0BEE1F88F7E095089504D06894B11116
:1015E000DAC00895BDD088F09F5790F0B92F9927A1
:1015F000B751A0F0D1F0660F771F881F991F1AF01E
:10160000BA95C9F712C0B13081F0C4D0B1E00895E5
:10161000C1C0672F782F8827B85F39F0B93FCCF366
:10162000869577956795B395D9F73EF49095809513
:10163000709561957F4F8F4F9F4F0895E89409C033
:1016400097FB3EF490958095709561957F4F8F4FF5
:101650009F4F9923A9F0F92F96E9BB279395F6950B
:10166000879577956795B795F111F8CFFAF4BB0F89
:1016700011F460FF1BC06F5F7F4F8F4F9F4F16C0ED
:10168000882311F096E911C0772321F09EE8872F77
:10169000762F05C0662371F096E8862F70E060E033
:1016A0002AF09A95660F771F881FDAF7880F9695AC
:1016B000879597F9089597F99F6780E870E060E053
:1016C00008959FEF80EC0895DF93CF931F930F93BE
:1016D000FF92EF92DF927B018C01689405C0DA2EB5
:1016E000EF0172D0FE01E894A591259135914591C5
:1016F0005591AEF3EF01CFD0FE019701A801DA9426
:1017000079F7DF90EF90FF900F911F91CF91DF91CC
:10171000089500240A941616170618060906089557
:1017200000240A9412161306140605060895092EBD
:101730000394000C11F4882352F0BB0F40F4BF2B2C
:1017400011F460FF04C06F5F7F4F8F4F9F4F08956C
:1017500057FD9058440F551F59F05F3F71F0479562
:10176000880F97FB991F61F09F3F79F08795089547
:10177000121613061406551FF2CF4695F1DF08C066
:10178000161617061806991FF1CF86957105610583
:1017900008940895E894BB2766277727CB0197F92B
:1017A00008959B01AC0160E070E080E89FE3ADCE5E
:1017B0000BD0BDCFAEDF28F0B3DF18F0952309F0D2
:1017C0007ACF7FCF1124E7CFC3DFA0F3959FD1F36A
:1017D000950F50E0551F629FF001729FBB27F00DDF
:1017E000B11D639FAA27F00DB11DAA1F649F662734
:1017F000B00DA11D661F829F2227B00DA11D621F83
:10180000739FB00DA11D621F839FA00D611D221F3C
:10181000749F3327A00D611D231F849F600D211D20
:10182000822F762F6A2F11249F5750408AF0E1F0C3
:1018300088234AF0EE0FFF1FBB1F661F771F881F0C
:1018400091505040A9F79E3F510570F034CFA3CF7F
:101850005F3FECF3983EDCF3869577956795B795F7
:10186000F795E7959F5FC1F7FE2B880F911D969521
:10187000879597F908959B01AC019ACF4ADF30F024
:101880004FDF20F031F49F3F11F41EF41ACF0EF415
:10189000E095E7FB10CFE92F5BDF80F3BA17620713
:1018A00073078407950718F071F49EF573CF0EF453
:1018B000E0950B2EBA2FA02D0B01B90190010C0160
:1018C000CA01A0011124FF27591B99F0593F50F478
:1018D000503E68F11A16F040A22F232F342F4427D0
:1018E000585FF3CF469537952795A795F0405395C8
:1018F000C9F77EF41F16BA0B620B730B840BBAF098
:101900009150A1F0FF0FBB1F661F771F881FC2F702
:101910000EC0BA0F621F731F841F48F48795779516
:101920006795B795F7959E3F08F0B3CF9395880FCD
:1019300008F09927EE0F979587950895629FD0013B
:10194000739FF001829FE00DF11D649FE00DF11D7A
:10195000929FF00D839FF00D749FF00D659FF00D29
:101960009927729FB00DE11DF91F639FB00DE11D16
:10197000F91FBD01CF011124089597FB092E0726F9
:101980000AD077FD04D049D006D000201AF4709513
:1019900061957F4F0895F6F7909581959F4F089533
:1019A000A1E21A2EAA1BBB1BFD010DC0AA1FBB1F63
:1019B000EE1FFF1FA217B307E407F50720F0A21BD5
:1019C000B30BE40BF50B661F771F881F991F1A9442
:1019D00069F760957095809590959B01AC01BD016C
:1019E000CF01089597FB092E05260ED057FD04D090
:1019F000D7DF0AD0001C38F45095409530952195DA
:101A00003F4F4F4F5F4F0895F6F790958095709533
:101A100061957F4F8F4F9F4F0895AA1BBB1B51E1CC
:101A200007C0AA1FBB1FA617B70710F0A61BB70B4E
:101A3000881F991F5A95A9F780959095BC01CD01F3
:061A40000895F894FFCFA9
:101A460044656275672053746172746564002C0086
:101A5600CE049C044E024E023A02E600C800D200B2
:021A660014006A
:00000001FF
