:100000000C9434000C9451000C9451000C94510049
:100010000C941A050C9451000C9451000C9451004E
:100020000C9451000C9451000C9451000C9451000C
:100030000C9451000C9451000C9451000C945100FC
:100040000C9459050C9451000C9451000C945100DF
:100050000C9451000C9451000C9451000C945100DC
:100060000C9451000C94510011241FBECFEFD8E026
:10007000DEBFCDBF11E0A0E0B1E0EAE1FBE002C0ED
:1000800005900D92AA32B107D9F711E0AAE2B1E0CA
:1000900001C01D92A935B107E1F70E9453000C94ED
:1000A0008B050C940000CF93DF93549A5C980E94C8
:1000B000EC010E94130580E091E00E94D603CCE29F
:1000C000D1E08BE60E94B001482F50E060E070E084
:1000D0008EE091E00E94AE0488E893E1FE01319742
:1000E000F1F70197D9F7EDCF10922A0110922B0169
:1000F000089588EC8A95F1F708958CE291E00197D4
:10010000F1F7089584E08A95F1F70895813011F4AC
:100110003C9A08953C980895813011F4449A0895CA
:1001200044980895813019F4449A3C98089544986D
:100130003C9A089586B190E024E0969587952A959B
:10014000E1F781700895813011F43D9A08953D984A
:100150000895813011F4459A0895459808958130A5
:1001600019F4459A3D98089545983D9A089586B1A9
:1001700090E035E0969587953A95E1F7817008957E
:100180003C9880E00E94920008953D9880E00E9493
:10019000AF0008953C9A3D9881E00E94920081E072
:1001A0000E94AF0008951F9381E00E94920081E0B9
:1001B0000E94AF0018EC812F8A95F1F780E00E9431
:1001C000AF00812F8A95F1F780E00E9492001A9586
:1001D000F1F71F9108951F9380E00E94920080E044
:1001E0000E94AF0018EC812F8A95F1F781E00E9400
:1001F0009200812F8A95F1F781E00E94AF001A9555
:10020000F1F71F910895EF92FF920F931F93082F1C
:1002100010E058ECF52E44E0E42E07FF02C081E028
:1002200001C080E00E94AF008F2D8A95F1F781E038
:100230000E9492008F2D8A95F1F780E00E94920033
:100240008E2D8A95F1F71F5F183011F0000FE5CF62
:100250001F910F91FF90EF900895FF920F931F93BE
:1002600081E00E94AF0010E000E068ECF62E110F74
:100270008F2D8A95F1F781E00E94920035991160E7
:100280008F2D8A95F1F780E00E9492000F5F083071
:1002900071F788EC8A95F1F781E00E949200812F36
:1002A0001F910F91FF9008951F9380E00E94AF006F
:1002B00018EC812F8A95F1F781E00E9492001A953F
:1002C000F1F780E00E9492001F9108951F9381E052
:1002D0000E94AF0018EC812F8A95F1F781E00E940F
:1002E00092001A95F1F780E00E9492001F91089504
:1002F0000F931F9381E00E94AF0008EC802F8A9536
:10030000F1F781E00E94920016B10A95F1F780E0C2
:100310000E9492001295169517701095812F81708A
:100320001F910F9108951F93182F0E94D300812FC2
:100330000E9403010E947801182F0E94EB00812F78
:100340001F9108951F9310E0812F0E949301813027
:1003500011F4812F03C01F5F1F3FB1F71F91089554
:10036000DF92EF92FF920F931F93182F0E94D300FA
:1003700080912A010E9403010E947801E82E812FBA
:100380000E9403010E947801F82E0E94EB000E9457
:10039000D30080912B010E9403010E947801182F45
:1003A0000E942D01D82E0E947801082F0E94EB0098
:1003B000FF0C110F110F1F291E29000F000F000F36
:1003C000012B073011F08FEF01C08D2D1F910F9180
:1003D000FF90EF90DF90089510922A0110922B0168
:1003E0000E94CA000E94A20180932A018F5F80931D
:1003F0002B01089510922C0110922D0181E0809321
:100400002E0180E090E0FC01E45DFE4F1382019636
:1004100080329105C1F710924F01E0E5F1E01192B1
:1004200081E0E835F807D9F71082089514BC15BCAF
:1004300010926E008FEF85BBE8E6F0E0808182606D
:100440008083ECE6F0E0808188608083D99A78949C
:1004500008958FEF85BBEEE6F0E0108288EC86BD54
:1004600084E085BD81E085BB8083089510926E0095
:1004700015BC16BC0895509A589A3B98439A089513
:10048000589A089558980895813011F4589A08950B
:100490005898089586B190E023E0969587952A951F
:1004A000E1F7817008959C0116BC81E085BD86B599
:1004B0008233E8F316BC86B590E082179307D8F331
:1004C00015BC089580912401909125010E9453024A
:1004D000089580912601909127010E94530208956A
:1004E00080912801909129010E9453020895DF9282
:1004F000EF92FF920F931F93DF93CF93CDB7DEB7A9
:100500002A970FB6F894DEBF0FBECDBFFE0131961D
:100510009AE0DF011D929A95E9F791E09A87FE0132
:10052000329620E030E0482F50E061E0CA01022E10
:1005300002C0959587950A94E2F780FF02C0608318
:1005400001C010822F5F3F4F31962830310571F77F
:10055000DFB6F8948E010F5F1F4F3BE0E32EF12CC6
:10056000EC0EFD1EF8018081813011F4589A01C013
:1005700058980E9462020F5F1F4F0E151F0591F7DA
:10058000DFBE2A960FB6F894DEBF0FBECDBFCF9167
:10059000DF911F910F91FF90EF90DF900895FF92F0
:1005A0000F931F93339B21C082E017C00E94690202
:1005B00033990068173009F006951F5F1830B1F7BE
:1005C0000E94690286B1F3FC07C083FF05C0009357
:1005D0002D0110922C0103C081E080932C018091A9
:1005E0002D011F910F91FF9008950E947002F6B0A7
:1005F00000E010E0DBCF80912D01089510922D01D5
:10060000089580932D010895BF92CF92DF92EF92CB
:10061000FF920F931F93CF93DF937B018C018FEF9A
:10062000E816F1040105110509F030F4C8E0D0E046
:1006300062E0C62ED12C14C080E0E81680E0F806F7
:1006400081E0080780E0180730F0C0E2D0E058E011
:10065000C52ED12C05C0C0E1D0E044E0C42ED12C81
:1006600080E30E94770288E70E947702BB2417C0CC
:100670002497D801C7010C2E04C0B695A79597956D
:1006800087950A94D2F790E08F7090708A30910528
:1006900010F0C79601C0C0960E947702B3948B2DCC
:1006A00090E08C159D0520F3DF91CF911F910F9164
:1006B000FF90EF90DF90CF90BF900895AF92BF92E0
:1006C000CF92DF92EF92FF920F931F93CF93DF931E
:1006D0007B018C016F3F71058105910509F018F4CC
:1006E000F7E0DF2E0DC0603030E0730731E08307A4
:1006F00030E0930718F0EFE1DE2E02C07FE0D72E46
:1007000080E30E94770282E60E947702C0E0D0E098
:10071000CD2CDD2456010894A11CB11CC6018C1BF4
:100720009D0BA801970104C05695479537952795CD
:100730008A95D2F7DA01C90181709070892B11F086
:1007400081E301C080E30E9477022196CA15DB0590
:1007500029F7DF91CF911F910F91FF90EF90DF90DC
:10076000CF90BF90AF9008958DE00E9477028AE00D
:100770000E947702089580E20E94770208958CE239
:100780000E94770208951F93CF93DF93EC0110E04E
:1007900003C00E9477021F5FFE01E10FF11D8081FF
:1007A0008823B9F7DF91CF911F9108950E94C30369
:1007B0000E94B40308950E94C3030E94BB030895DE
:1007C0000E94C3030E94BF030895BF92CF92DF929D
:1007D000EF92FF920F931F936B017C0161157105DE
:1007E0008105910531F41092500181E08093580108
:1007F00023C0BB240B2D10E0045D1E4FC701B601C2
:100800002AE030E040E050E00E946905F80164A36E
:10081000C701B6012AE030E040E050E00E946905DF
:10082000C901DA016C017D01B394C114D104E10462
:10083000F10401F7B09258011F910F91FF90EF90D2
:10084000DF90CF90BF9008951F931091580109C079
:100850001150E12FF0E0E45DFE4F84A1805D0E9425
:1008600077021123A9F71F910895EF92FF920F933A
:100870001F937B018C0197FF0BC08DE20E947702D2
:1008800010950095F094E094E11CF11C011D111DE0
:10089000C801B7010E94E5030E9424041F910F9133
:1008A000FF90EF9008950E9435040E94B4030895CC
:1008B0000E9435040E94BB0308950E94350486E11E
:1008C00091E00E94C30308950E9404030E94B403B0
:1008D00008950E9404030E94BB0308950E9404032C
:1008E00086E191E00E94C3030895EF92FF920F9377
:1008F0001F937A018B010E94C3030E94BB03C801AE
:10090000B7010E9453041F910F91FF90EF9008953B
:10091000EF92FF920F931F937A018B010E94C30302
:100920000E94BB03C801B7010E9458041F910F9198
:10093000FF90EF900895EF92FF920F931F937A012B
:100940008B010E94C3030E94BB03C801B7010E9430
:100950005D041F910F91FF90EF900895EF92FF9229
:100960000F931F937A018B010E94C3030E94BB0364
:10097000C801B7010E9464041F910F91FF90EF908E
:100980000895EF92FF920F931F937A018B010E94BB
:10099000C3030E94BB03C801B7010E9469041F91F1
:1009A0000F91FF90EF900895EF92FF920F931F9396
:1009B0007A018B010E94C3030E94BB03C801B701E7
:1009C0000E946E041F910F91FF90EF900895ECE24A
:1009D000F1E0E80FF11D8381089580914F010895A2
:1009E00080E090E0FC01E45DFE4F138201968032CE
:1009F0009105C1F710924F01089580912E0108953D
:100A000080912E01882311F090E008C080914F0161
:100A100090E0882309F491E081E09827892F0895D8
:100A200080914F0108950E94FA010E9416020E94CF
:100A30003B0208951F920F920FB60F9211242F932D
:100A40003F934F935F936F937F938F939F93AF9356
:100A5000BF93EF93FF9381E080932E010E94CF021A
:100A6000982F80912C01882399F4E0914F01F0E0B8
:100A7000E45DFE4F938380914F018F5F80934F0120
:100A800080914F01813210F010924F010E94290293
:100A9000FF91EF91BF91AF919F918F917F916F9156
:100AA0005F914F913F912F910F900FBE0F901F902C
:100AB00018951F920F920FB60F92112410926E008C
:100AC00015BC16BC10922E010F900FBE0F901F90F8
:100AD0001895A1E21A2EAA1BBB1BFD010DC0AA1F6F
:100AE000BB1FEE1FFF1FA217B307E407F50720F097
:100AF000A21BB30BE40BF50B661F771F881F991F12
:100B00001A9469F760957095809590959B01AC015A
:0A0B1000BD01CF010895F894FFCF56
:100B1A004465627567205374617274656400526536
:100B2A006756616C3A002C00CE049C044E024E02B9
:0A0B3A003A02E600C800D2001400E1
:00000001FF
