:100000000C944B000C9468000C9468000C946800ED
:100010000C94F7070C9468000C9468000C9468002A
:100020000C9468000C9468000C9468000C946800B0
:100030000C9468000C9468000C9468000C946800A0
:100040000C9436080C9468000C9468000C946800BA
:100050000C9468000C9468000C9468000C94680080
:100060000C9468000C946800084AD73B3BCE016EA4
:1000700084BCBFFDC12F3D6C74319ABD56833DDAFF
:100080003D00C77F11BED9E4BB4C3E916BAAAABE0E
:10009000000000803F0011241FBECFEFD8E0DEBF7C
:1000A000CDBF11E0A0E0B1E0E2ECF7E102C00590C5
:1000B0000D92A232B107D9F711E0A2E2B1E001C07E
:1000C0001D92AA38B107E1F70E946A000C94DF0B79
:1000D0000C940000CF93DF93549A5C980E947804AC
:1000E0000E94F00762E370E080E090E00E94F20876
:1000F00080E091E00E946906CCE2D1E08BE60E94AC
:10010000DF0190E0A0E0B0E0BC01CD010E94F0066C
:100110000E94EB03AA2797FDA095BA2FBC01CD0141
:100120000E94F0060E94470688EE93E0FE01319798
:10013000F1F70197D9F7E2CF109222011092230133
:10014000109224011092260110922501089580E555
:100150008A95F1F7089580EA8A95F1F7089588E085
:100160008A95F1F70895813011F43D9A08953D98EC
:100170000895813011F4459A089545980895813085
:1001800019F4459A3D98089545983D9A089586B189
:1001900090E025E0969587952A95E1F7817008957E
:1001A000813011F43C9A08953C980895813011F4FF
:1001B000449A089544980895813019F4449A3C98DB
:1001C000089544983C9A089586B190E034E096955D
:1001D00087953A95E1F7817008953D9880E00E94F7
:1001E000BF0008953C9880E00E94DC0008953D9A8D
:1001F0003C9881E00E94BF0081E00E94DC000895ED
:100200001F9381E00E94BF0081E00E94DC0010E5A6
:10021000812F8A95F1F780E00E94DC00812F8A957A
:10022000F1F780E00E94BF001A95F1F71F91089541
:100230001F9380E00E94BF0080E00E94DC0010E578
:10024000812F8A95F1F781E00E94BF00812F8A9566
:10025000F1F781E00E94DC001A95F1F71F910895F3
:10026000EF92FF920F931F93082F10E050E5F52EA9
:1002700048E0E42E07FF02C081E001C080E00E9458
:10028000DC008F2D8A95F1F781E00E94BF008F2D51
:100290008A95F1F780E00E94BF008E2D8A95F1F7D4
:1002A0001F5F183011F0000FE5CF1F910F91FF90E5
:1002B000EF900895FF920F931F9381E00E94DC005E
:1002C00010E000E060E5F62E110F8F2D8A95F1F712
:1002D00081E00E94BF00349911608F2D8A95F1F75B
:1002E00080E00E94BF000F5F083071F780E58A95BB
:1002F000F1F781E00E94BF00812F1F910F91FF90C5
:1003000008951F9380E00E94DC0010E5812F8A95FC
:10031000F1F781E00E94BF001A95F1F780E00E949A
:10032000BF001F9108951F9381E00E94DC0010E53B
:10033000812F8A95F1F781E00E94BF001A95F1F7AD
:1003400080E00E94BF001F9108950F931F9381E0EA
:100350000E94DC0000E5802F8A95F1F781E00E9481
:10036000BF0016B10A95F1F780E00E94BF0088E057
:100370008A95F1F712951F701095812F81701F914A
:100380000F9108951F93182F0E940001812F0E9442
:1003900030010E94A501182F0E941801812F1F9182
:1003A00008951F9310E0812F0E94C201813011F443
:1003B000812F03C01F5F1F3FB1F71F910895DF9288
:1003C000EF92FF920F931F93182F0E9400018091CC
:1003D00022010E9430010E94A501E82E812F0E9477
:1003E00030010E94A501F82E0E9418010E94000110
:1003F000809123010E9430010E94A501182F0E94C4
:100400005A01D82E0E94A501082F0E941801FF0C46
:10041000110F110F1F291E29000F000F000F012BB4
:10042000073021F4109224018D2D0DC081E08093BE
:100430002401809125019091260101969093260137
:10044000809325018FEF1F910F91FF90EF90DF9028
:100450000895EF92FF920F931F93182FF62E0E948C
:100460000001809122010E9430010E94A501E82E26
:10047000812F0E9430010E94A501082F8F2D0E941C
:1004800030010E94A501182F0E941801000F110FC2
:10049000110F102B1E29173019F4109224010CC0D3
:1004A00082E080932401809125019091260101969C
:1004B00090932601809325011F910F91FF90EF905B
:1004C000089580912401089580912501909126013D
:1004D00008958BE60E94DF0186FD04C08BE660E490
:1004E0000E94290208958BE60E94DF0186FF04C066
:1004F0008BE660E00E94290208951F9381E40E9428
:10050000DF01182F82E40E94DF01282F809124014F
:10051000882319F020E030E00CC0912F80E030E01B
:10052000822B932B64E571E00E947B0B9B012C5D79
:100530003F4FC9011F910895EF92FF920F931F93B0
:1005400087E40E94DF01F82EEE2488E40E94DF0198
:1005500090E0E82AF92A0027F7FC0095102F85E0A3
:10056000B801A7010E9471089B01AC018091240190
:10057000882319F060E070E001C0B901CB011F9140
:100580000F91FF90EF900895EF92FF920F931F93BA
:1005900085E40E94DF01F82EEE2486E40E94DF014C
:1005A00090E0E82AF92A0027F7FC0095102F84E054
:1005B000B801A7010E947108CB011F910F91FF9014
:1005C000EF900895EF92FF920F931F9383E40E94A0
:1005D000DF01F82EEE2484E40E94DF0190E0E82A97
:1005E000F92A0027F7FC0095102F83E0B801A70136
:1005F0000E9471089B01AC0180912401882319F0AD
:1006000060E070E001C0B901CB011F910F91FF9034
:10061000EF900895EF92FF920F931F938FE30E9444
:10062000DF01F82EEE2480E40E94DF0190E0E82A4A
:10063000F92A0027F7FC0095102F82E0B801A701E6
:100640000E9471089B01AC0180912401882319F05C
:1006500060E070E001C0B901CB011F910F91FF90E4
:10066000EF900895EF92FF920F931F938DE30E94F6
:10067000DF01F82EEE248EE30E94DF0190E0E82AED
:10068000F92A0027F7FC0095102F81E0B801A70197
:100690000E9471089B01AC0180912401882319F00C
:1006A00060E070E001C0B901CB011F910F91FF9094
:1006B000EF900895AF92BF92CF92DF92EF92FF92A8
:1006C0000F931F9380912401882319F060E070E05C
:1006D0002EC00E9432037C010E940A035C010027A5
:1006E000F7FC0095102FC801B7010E94DE097B01BD
:1006F0008C01CC24B7FCC094DC2CC601B5010E944F
:10070000DE099B01AC01C801B7010E9443090E94A8
:100710001B0920E030E040E251E40E94960A23E306
:1007200033E345E652E40E94960A0E94AB09CB01EE
:100730001F910F91FF90EF90DF90CF90BF90AF90FF
:100740000895EF92FF920F931F938BE30E94DF01B6
:10075000F82EEE248CE30E94DF0190E0E82AF92ACB
:100760000027F7FC0095102F80E0B801A7010E9438
:1007700071089B01AC0180912401882319F060E08D
:1007800070E001C0B901CB011F910F91FF90EF9074
:1007900008950F931F930E94F70000E315E7C80127
:1007A0000197F1F70E941801C8010197F1F70E9423
:1007B0007302C8010197F1F70E94A1030E9432035E
:1007C0000E940A030E94E2020E94C4020E949C024C
:1007D0001F910F9108950E945A0302C00E94C903FD
:1007E000809124018823D1F70E945A030895AF9283
:1007F000BF92CF92DF92EF92FF920F931F9380915F
:100800002401882319F060E070E02EC00E94A1034B
:100810007C010E940A035C010027F7FC0095102F61
:10082000C801B7010E94DE097B018C01CC24B7FC12
:10083000C094DC2CC601B5010E94DE099B01AC010D
:10084000C801B7010E9443090E941B0920E030E063
:1008500040E251E40E94960A23E333E345E652E482
:100860000E94960A0E94AB09CB011F910F91FF9045
:10087000EF90DF90CF90BF90AF9008950E94F70364
:1008800002C00E94C903809124018823D1F70E94ED
:10089000F70308951092220110922301109224016F
:1008A00010922601109225010E94F7000E94D101AA
:1008B000809322018F5F809323010E94D60880E0FD
:1008C0006AE00E94570881E06AE00E94570882E0CF
:1008D0006AE00E94570883E06AE00E94570884E0BB
:1008E0006AE00E94570885E06AE00E945708089570
:1008F0000E944A040E94730280E797E10197F1F792
:100900000E94A1030E9432030E940A030E94E20295
:100910000E94C4020E949C02089510922701109226
:10092000280181E08093290180E090E0FC01E95DED
:10093000FE4F1382019680329105C1F710924A0151
:10094000EBE4F1E0119281E0E335F807D9F710828A
:10095000089514BC15BC10926E008FEF85BBE8E6BD
:10096000F0E0808182608083ECE6F0E0808180644A
:100970008083D99A789408958FEF85BBEEE6F0E0F6
:10098000108288EC86BD84E085BD81E085BB8083D4
:10099000089510926E0015BC16BC0895559A5D9A84
:1009A0003E98469A08955D9A08955D98089581301D
:1009B00011F45D9A08955D98089586B190E026E05F
:1009C000969587952A95E1F7817008959C0116BC4C
:1009D00081E085BD86B58233E8F316BC86B590E02C
:1009E00082179307D8F315BC089580911C0190914C
:1009F0001D010E94E604089580911E0190911F013F
:100A00000E94E604089580912001909121010E94A6
:100A1000E6040895DF92EF92FF920F931F93DF9306
:100A2000CF93CDB7DEB72A970FB6F894DEBF0FBECF
:100A3000CDBFFE0131969AE0DF011D929A95E9F74C
:100A400091E09A87FE01329620E030E0482F50E096
:100A500061E0CA01022E02C0959587950A94E2F7DB
:100A600080FF02C0608301C010822F5F3F4F31962C
:100A70002830310571F7DFB6F8948E010F5F1F4FF4
:100A80003BE0E32EF12CEC0EFD1EF801808181305D
:100A900011F45D9A01C05D980E94F5040F5F1F4F2D
:100AA0000E151F0591F7DFBE2A960FB6F894DEBF2C
:100AB0000FBECDBFCF91DF911F910F91FF90EF90AF
:100AC000DF900895FF920F931F93369B21C082E021
:100AD00017C00E94FC0436990068173009F006958B
:100AE0001F5F1830B1F70E94FC0486B1F6FC07C006
:100AF00086FF05C0009328011092270103C081E002
:100B000080932701809128011F910F91FF900895F4
:100B10000E940305F6B000E010E0DBCF80912801D1
:100B20000895109228010895809328010895BF9296
:100B3000CF92DF92EF92FF920F931F93CF93DF93A9
:100B40007B018C018FEFE816F1040105110509F016
:100B500030F4C8E0D0E062E0C62ED12C14C080E0B2
:100B6000E81680E0F80681E0080780E0180730F01A
:100B7000C0E2D0E058E0C52ED12C05C0C0E1D0E0E5
:100B800044E0C42ED12C80E30E940A0588E70E942D
:100B90000A05BB2417C02497D801C7010C2E04C036
:100BA000B695A795979587950A94D2F790E08F70A0
:100BB00090708A30910510F0C79601C0C0960E94CF
:100BC0000A05B3948B2D90E08C159D0520F3DF91E1
:100BD000CF911F910F91FF90EF90DF90CF90BF903A
:100BE0000895AF92BF92CF92DF92EF92FF920F9350
:100BF0001F93CF93DF937B018C016F3F71058105BC
:100C0000910509F018F4F7E0DF2E0DC0603030E0F8
:100C1000730731E0830730E0930718F0EFE1DE2E31
:100C200002C07FE0D72E80E30E940A0582E60E9480
:100C30000A05C0E0D0E0CD2CDD2456010894A11CAB
:100C4000B11CC6018C1B9D0BA801970104C05695D1
:100C50004795379527958A95D2F7DA01C9018170B2
:100C60009070892B11F081E301C080E30E940A0596
:100C70002196CA15DB0529F7DF91CF911F910F91BE
:100C8000FF90EF90DF90CF90BF90AF9008958DE0F0
:100C90000E940A058AE00E940A05089580E20E94E7
:100CA0000A0508958CE20E940A0508951F93CF93C8
:100CB000DF93EC0110E003C00E940A051F5FFE01F4
:100CC000E10FF11D80818823B9F7DF91CF911F914A
:100CD00008950E9456060E94470608950E945606EF
:100CE0000E944E0608950E9456060E9452060895DC
:100CF000BF92CF92DF92EF92FF920F931F936B01FF
:100D00007C01611571058105910531F410924B014B
:100D100081E08093530123C0BB240B2D10E0095DBB
:100D20001E4FC701B6012AE030E040E050E00E94CB
:100D30008E0BF80164A3C701B6012AE030E040E061
:100D400050E00E948E0BC901DA016C017D01B39461
:100D5000C114D104E104F10401F7B09253011F91D1
:100D60000F91FF90EF90DF90CF90BF9008951F9369
:100D70001091530109C01150E12FF0E0E95DFE4FE1
:100D800084A1805D0E940A051123A9F71F9108958F
:100D9000EF92FF920F931F937B018C0197FF0BC083
:100DA0008DE20E940A0510950095F094E094E11CF4
:100DB000F11C011D111DC801B7010E9478060E9497
:100DC000B7061F910F91FF90EF9008950E94C806FB
:100DD0000E94470608950E94C8060E944E06089584
:100DE0000E94C8068EE091E00E94560608950E9477
:100DF00097050E94470608950E9497050E944E0697
:100E000008950E9497058EE091E00E94560608958D
:100E10000E94F1050E94470608950E94F1050E9474
:100E20004E0608950E94F1058EE091E00E9456065C
:100E30000895EF92FF920F931F937A018B010E9406
:100E400056060E944E06C801B7010E94E6061F9191
:100E50000F91FF90EF900895EF92FF920F931F93E1
:100E60007A018B010E9456060E944E06C801B70106
:100E70000E94EB061F910F91FF90EF900895EF9263
:100E8000FF920F931F937A018B010E9456060E94D6
:100E90004E06C801B7010E94F0061F910F91FF9006
:100EA000EF900895EF92FF920F931F937A018B01B9
:100EB0000E9456060E944E06C801B7010E94F7061E
:100EC0001F910F91FF90EF900895EF92FF920F9373
:100ED0001F937A018B010E9456060E944E06C8019C
:100EE000B7010E94FC061F910F91FF90EF900895AB
:100EF000EF92FF920F931F937A018B010E94560687
:100F00000E944E06C801B7010E9401071F910F9170
:100F1000FF90EF900895EF92FF920F931F937A0145
:100F20008B010E9456060E944E06C801B7010E941E
:100F300008071F910F91FF90EF900895EF92FF9295
:100F40000F931F937A018B010E9456060E944E0652
:100F5000C801B7010E940D071F910F91FF90EF90FC
:100F60000895EF92FF920F931F937A018B010E94D5
:100F700056060E944E06C801B7010E9412071F9133
:100F80000F91FF90EF900895E7E2F1E0E80FF11D77
:100F90008381089580914A01089580E090E0FC01EA
:100FA000E95DFE4F1382019680329105C1F71092E0
:100FB0004A0108958091290108958091290188238B
:100FC00011F090E008C080914A0190E0882309F474
:100FD00091E081E09827892F089580914A01089532
:100FE0000E948D040E94A9040E94CE0408951F92BD
:100FF0000F920FB60F9211242F933F934F935F934D
:101000006F937F938F939F93AF93BF93EF93FF93D0
:1010100081E0809329010E946205982F8091270129
:10102000882399F4E0914A01F0E0E95DFE4F938353
:1010300080914A018F5F80934A0180914A018132F9
:1010400010F010924A010E94BC04FF91EF91BF91F1
:10105000AF919F918F917F916F915F914F913F9150
:101060002F910F900FBE0F901F9018951F920F9207
:101070000FB60F92112410926E0015BC16BC109280
:1010800029010F900FBE0F901F901895E4E5F1E035
:1010900010821182128213821482158216821782A4
:1010A0001086399681E0EA38F80791F7089590E0C4
:1010B000FC0123E0EE0FFF1F2A95E1F7E80FF91F6F
:1010C000EC5AFE4F6083089590E0FC0133E0EE0F90
:1010D000FF1F3A95E1F7E80FF91FEC5AFE4F8081A8
:1010E00008952F923F924F925F926F927F928F92CC
:1010F0009F92AF92BF92CF92DF92EF92FF920F93A7
:101100001F931A012B0190E06C0153E0CC0CDD1C05
:101110005A95E1F7C80ED91E84E591E0C80ED91E94
:10112000F6012081622E77248824992464E670E0F9
:10113000621B7109882777FD8095982F45E0A42EC2
:10114000B12CAC0CBD1C25813681478150850E9495
:101150005C0B7B018C01C201B101A40193010E94CF
:101160005C0BE60EF71E081F191FC801B70124E625
:1011700030E040E050E00E94B00BCA01F601258348
:10118000F501318342839383B9011F910F91FF9041
:10119000EF90DF90CF90BF90AF909F908F907F9017
:1011A0006F905F904F903F902F9008950E94460857
:1011B0000895A0E0B0E0BC01CD0121E433E040E0BF
:1011C00050E00E945C0B6051764B8D4F9F4F24E6A0
:1011D00030E040E050E00E948E0B30938900209375
:1011E000880008959B01AC01219A60E673EE86E1C8
:1011F00090E00E948E0B2150304030938700209366
:1012000086008CED95E0909389008093880082E8B9
:10121000809380008AE18093810080E090E00E94CA
:10122000D90888EE93E02CE231E0F9013197F1F72B
:101230000197D9F70895DF93DD27B92FBF7740E8ED
:101240005FE31616170648075B0710F4D92F67D11E
:101250009F938F937F936F93CCD1E8E6F0E0F2D029
:1012600024D12F913F914F915F916CD1DD2349F0B3
:101270009058A2EA2AED3FE049EC5FE3D0785D2781
:10128000C8D1DF9112C10CD010C108D140F0FFD0FD
:1012900030F021F45F3F19F0CCC051113AC1CFC0FA
:1012A00015D198F39923C9F35523B1F3951B550B29
:1012B000BB27AA2762177307840738F09F5F5F4F29
:1012C000220F331F441FAA1FA9F333D00E2E3AF06A
:1012D000E0E830D091505040E695001CCAF729D084
:1012E000FE2F27D0660F771F881FBB1F26173707D3
:1012F0004807AB07B0E809F0BB0B802DBF01FF2703
:1013000093585F4F2AF09E3F510568F092C001C18B
:101310005F3FECF3983EDCF3869577956795B7953C
:10132000F7959F5FC9F7880F911D9695879597F957
:101330000895E1E0660F771F881FBB1F62177307D0
:101340008407BA0720F0621B730B840BBA0BEE1FE5
:1013500088F7E095089504D06894B111DAC0089533
:10136000BDD088F09F5790F0B92F9927B751A0F0C2
:10137000D1F0660F771F881F991F1AF0BA95C9F729
:1013800012C0B13081F0C4D0B1E00895C1C0672F60
:10139000782F8827B85F39F0B93FCCF386957795D9
:1013A0006795B395D9F73EF49095809570956195C2
:1013B0007F4F8F4F9F4F0895E89409C097FB3EF4ED
:1013C00090958095709561957F4F8F4F9F4F992392
:1013D000A9F0F92F96E9BB279395F6958795779510
:1013E0006795B795F111F8CFFAF4BB0F11F460FFD0
:1013F0001BC06F5F7F4F8F4F9F4F16C0882311F028
:1014000096E911C0772321F09EE8872F762F05C03B
:10141000662371F096E8862F70E060E02AF09A95D6
:10142000660F771F881FDAF7880F9695879597F9CB
:10143000089597F99F6780E870E060E008959FEF56
:1014400080EC0895DF93CF931F930F93FF92EF9259
:10145000DF927B018C01689405C0DA2EEF0172D017
:10146000FE01E894A5912591359145915591AEF3F2
:10147000EF01CFD0FE019701A801DA9479F7DF9050
:10148000EF90FF900F911F91CF91DF91089500246D
:101490000A941616170618060906089500240A94D9
:1014A00012161306140605060895092E0394000C5F
:1014B00011F4882352F0BB0F40F4BF2B11F460FFEE
:1014C00004C06F5F7F4F8F4F9F4F089557FD905817
:1014D000440F551F59F05F3F71F04795880F97FBF8
:1014E000991F61F09F3F79F08795089512161306B2
:1014F0001406551FF2CF4695F1DF08C016161706E1
:101500001806991FF1CF8695710561050894089515
:10151000E894BB2766277727CB0197F908959B01AD
:10152000AC0160E070E080E89FE3ADCE0BD0BDCFB2
:10153000AEDF28F0B3DF18F0952309F07ACF7FCF24
:101540001124E7CFC3DFA0F3959FD1F3950F50E0AF
:10155000551F629FF001729FBB27F00DB11D639F65
:10156000AA27F00DB11DAA1F649F6627B00DA11D0B
:10157000661F829F2227B00DA11D621F739FB00DB1
:10158000A11D621F839FA00D611D221F749F332721
:10159000A00D611D231F849F600D211D822F762FBA
:1015A0006A2F11249F5750408AF0E1F088234AF0B7
:1015B000EE0FFF1FBB1F661F771F881F9150504003
:1015C000A9F79E3F510570F034CFA3CF5F3FECF3F6
:1015D000983EDCF3869577956795B795F795E795EF
:1015E0009F5FC1F7FE2B880F911D9695879597F900
:1015F00008959B01AC019ACF4ADF30F04FDF20F015
:1016000031F49F3F11F41EF41ACF0EF4E095E7FB7E
:1016100010CFE92F5BDF80F3BA17620773078407E7
:10162000950718F071F49EF573CF0EF4E0950B2E2C
:10163000BA2FA02D0B01B90190010C01CA01A00124
:101640001124FF27591B99F0593F50F4503E68F17F
:101650001A16F040A22F232F342F4427585FF3CFC0
:10166000469537952795A795F0405395C9F77EF491
:101670001F16BA0B620B730B840BBAF09150A1F0DA
:10168000FF0FBB1F661F771F881FC2F70EC0BA0F60
:10169000621F731F841F48F4879577956795B795E8
:1016A000F7959E3F08F0B3CF9395880F08F09927E0
:1016B000EE0F979587950895629FD001739FF00173
:1016C000829FE00DF11D649FE00DF11D929FF00DD2
:1016D000839FF00D749FF00D659FF00D9927729F09
:1016E000B00DE11DF91F639FB00DE11DF91FBD0194
:1016F000CF011124089597FB092E07260AD077FD04
:1017000004D049D006D000201AF4709561957F4F1F
:101710000895F6F7909581959F4F0895A1E21A2EAE
:10172000AA1BBB1BFD010DC0AA1FBB1FEE1FFF1F85
:10173000A217B307E407F50720F0A21BB30BE40BD5
:10174000F50B661F771F881F991F1A9469F760951C
:101750007095809590959B01AC01BD01CF010895D6
:1017600097FB092E05260ED057FD04D0D7DF0AD0EF
:10177000001C38F450954095309521953F4F4F4FC0
:101780005F4F0895F6F790958095709561957F4F1E
:101790008F4F9F4F0895AA1BBB1B51E107C0AA1F83
:1017A000BB1FA617B70710F0A61BB70B881F991F02
:1017B0005A95A9F780959095BC01CD010895F894AC
:0217C000FFCF59
:1017C20044656275672053746172746564002C000D
:1017D200CE049C044E024E023A02E600C800D20039
:0217E2001400F1
:00000001FF
