:100000000C9434000C9451000C9451000C94510049
:100010000C94FD040C9451000C9451000C9451006C
:100020000C9451000C9451000C9451000C9451000C
:100030000C9451000C9451000C9451000C945100FC
:100040000C943C050C9451000C9451000C945100FC
:100050000C9451000C9451000C9451000C945100DC
:100060000C9451000C94510011241FBECFEFD8E026
:10007000DEBFCDBF11E0A0E0B1E0E0EEFAE002C0EB
:1000800005900D92A232B107D9F711E0A2E2B1E0DA
:1000900001C01D92A135B107E1F70E9453000C94F5
:1000A0006E050C940000CF93DF93549A5C980E94E5
:1000B000CF010E94F60480E091E00E94B903CCE2F7
:1000C000D1E08BE60E949D0188E893E1FE01319723
:1000D000F1F70197D9F7F5CF109222011092230181
:1000E000089588EC8A95F1F708958CE291E00197E4
:1000F000F1F70895813011F43C9A08953C980895E1
:10010000813011F4449A089544980895813019F487
:10011000449A3C98089544983C9A089586B190E09A
:1001200024E0969587952A95E1F7817008958130AE
:1001300011F43D9A08953D980895813011F4459A3F
:10014000089545980895813019F4459A3D98089589
:1001500045983D9A089586B190E035E0969587954B
:100160003A95E1F7817008953C9880E00E948600FE
:1001700008953D9880E00E94A30008953C9A3D9820
:1001800081E00E94860081E00E94A30008951F93F1
:1001900081E00E94860081E00E94A30018EC812F7C
:1001A0008A95F1F780E00E94A300812F8A95F1F7EC
:1001B00080E00E9486001A95F1F71F9108951F9321
:1001C00080E00E94860080E00E94A30018EC812F4E
:1001D0008A95F1F781E00E948600812F8A95F1F7D8
:1001E00081E00E94A3001A95F1F71F910895FF92F4
:1001F0000F931F93082F10E048ECF42E07FF02C066
:1002000081E001C080E00E94A3008F2D8A95F1F764
:1002100081E00E9486008F2D8A95F1F780E00E9490
:1002200086001F5F183011F0000FE8CF1F910F916B
:10023000FF900895FF920F931F9381E00E94A30007
:1002400010E000E058ECF52E16958F2D8A95F1F709
:1002500081E00E948600359910688F2D8A95F1F70C
:1002600080E00E9486000F5F083071F788EC8A9565
:10027000F1F781E00E948600812F1F910F91FF907E
:1002800008951F9380E00E94A30018EC812F8A95A7
:10029000F1F781E00E9486001A95F1F780E00E9454
:1002A00086001F9108951F9381E00E94A30018EC1F
:1002B000812F8A95F1F781E00E9486001A95F1F767
:1002C00080E00E9486001F9108950F931F9381E0A4
:1002D0000E94A30008EC802F8A95F1F781E00E942C
:1002E000860016B10A95F1F780E00E94860012950B
:1002F000169517701095812F81701F910F91089599
:100300001F93182F0E94C700812F0E94F7000E94A0
:100310006501182F0E94DF00812F1F9108951F9300
:1003200010E0812F0E948001813011F4812F03C0E1
:100330001F5F1F3FB1F71F9108950F931F93182F51
:100340000E94C700809122010E94F7000E9465016F
:10035000812F0E94F7000E946501182F0E94DF0084
:10036000112311F41FEF17C00E94C70080912301D1
:100370000E94F7000E946501182F0E941A01082FA1
:10038000112331F00E946501882311F4102F01C060
:100390001FEF0E94DF00812F1F910F91089510928F
:1003A0002201109223010E94BE000E948F018093BF
:1003B00022018F5F809323010895109224011092EF
:1003C000250181E08093260180E090E0FC01EC5D56
:1003D000FE4F1382019680329105C1F710924701BA
:1003E000E8E4F1E0119281E0E035F807D9F71082F6
:1003F000089514BC15BC10926E008FEF85BBE8E623
:10040000F0E0808182608083ECE6F0E080818860AB
:100410008083D99A789408958FEF85BBEEE6F0E05B
:10042000108288EC86BD84E085BD81E085BB808339
:10043000089510926E0015BC16BC0895509A589AF3
:100440003B98439A0895589A089558980895813092
:1004500011F4589A08955898089586B190E023E0D1
:10046000969587952A95E1F7817008959C0116BCB1
:1004700081E085BD86B58233E8F316BC86B590E091
:1004800082179307D8F315BC089580911C019091B1
:100490001D010E943602089580911E0190911F0156
:1004A0000E943602089580912001909121010E94BE
:1004B00036020895DF92EF92FF920F931F93DF931E
:1004C000CF93CDB7DEB72A970FB6F894DEBF0FBE35
:1004D000CDBFFE0131969AE0DF011D929A95E9F7B2
:1004E00091E09A87FE01329620E030E0482F50E0FC
:1004F00061E0CA01022E02C0959587950A94E2F741
:1005000080FF02C0608301C010822F5F3F4F319691
:100510002830310571F7DFB6F8948E010F5F1F4F59
:100520003BE0E32EF12CEC0EFD1EF80180818130C2
:1005300011F4589A01C058980E9445020F5F1F4F4E
:100540000E151F0591F7DFBE2A960FB6F894DEBF91
:100550000FBECDBFCF91DF911F910F91FF90EF9014
:10056000DF900895FF920F931F93339B21C082E089
:1005700017C00E944C0233990068173009F00695A5
:100580001F5F1830B1F70E944C0286B1F3FC07C020
:1005900083FF05C0009325011092240103C081E070
:1005A00080932401809125011F910F91FF90089560
:1005B0000E945302F6B000E010E0DBCF80912501ED
:1005C0000895109225010895809325010895BF9202
:1005D000CF92DF92EF92FF920F931F93CF93DF930F
:1005E0007B018C018FEFE816F1040105110509F07C
:1005F00030F4C8E0D0E062E0C62ED12C14C080E018
:10060000E81680E0F80681E0080780E0180730F07F
:10061000C0E2D0E058E0C52ED12C05C0C0E1D0E04A
:1006200044E0C42ED12C80E30E945A0288E70E9445
:100630005A02BB2417C02497D801C7010C2E04C04E
:10064000B695A795979587950A94D2F790E08F7005
:1006500090708A30910510F0C79601C0C0960E9434
:100660005A02B3948B2D90E08C159D0520F3DF91F9
:10067000CF911F910F91FF90EF90DF90CF90BF909F
:100680000895AF92BF92CF92DF92EF92FF920F93B5
:100690001F93CF93DF937B018C016F3F7105810521
:1006A000910509F018F4F7E0DF2E0DC0603030E05E
:1006B000730731E0830730E0930718F0EFE1DE2E97
:1006C00002C07FE0D72E80E30E945A0282E60E9499
:1006D0005A02C0E0D0E0CD2CDD2456010894A11CC4
:1006E000B11CC6018C1B9D0BA801970104C0569537
:1006F0004795379527958A95D2F7DA01C901817018
:100700009070892B11F081E301C080E30E945A02AE
:100710002196CA15DB0529F7DF91CF911F910F9123
:10072000FF90EF90DF90CF90BF90AF9008958DE055
:100730000E945A028AE00E945A02089580E20E94B2
:100740005A0208958CE20E945A0208951F93CF9393
:10075000DF93EC0110E003C00E945A021F5FFE010C
:10076000E10FF11D80818823B9F7DF91CF911F91AF
:1007700008950E94A6030E94970308950E94A6036D
:100780000E949E0308950E94A6030E94A20308955A
:10079000BF92CF92DF92EF92FF920F931F936B0164
:1007A0007C01611571058105910531F410924801B4
:1007B00081E08093500123C0BB240B2D10E00C5D21
:1007C0001E4FC701B6012AE030E040E050E00E9431
:1007D0004C05F80164A3C701B6012AE030E040E00F
:1007E00050E00E944C05C901DA016C017D01B3940F
:1007F000C114D104E104F10401F7B09250011F913A
:100800000F91FF90EF90DF90CF90BF9008951F93CE
:100810001091500109C01150E12FF0E0EC5DFE4F46
:1008200084A1805D0E945A021123A9F71F910895A7
:10083000EF92FF920F931F937B018C0197FF0BC0E8
:100840008DE20E945A0210950095F094E094E11C0C
:10085000F11C011D111DC801B7010E94C8030E94AF
:1008600007041F910F91FF90EF9008950E941804C4
:100870000E94970308950E9418040E949E03089501
:100880000E9418048EE091E00E94A60308950E9441
:10089000E7020E94970308950E94E7020E949E03C8
:1008A00008950E94E7028EE091E00E94A603089559
:1008B000EF92FF920F931F937A018B010E94A60380
:1008C0000E949E03C801B7010E9436041F910F9138
:1008D000FF90EF900895EF92FF920F931F937A018C
:1008E0008B010E94A6030E949E03C801B7010E94CB
:1008F0003B041F910F91FF90EF900895EF92FF92AC
:100900000F931F937A018B010E94A6030E949E03FE
:10091000C801B7010E9440041F910F91FF90EF9012
:100920000895EF92FF920F931F937A018B010E941B
:10093000A6030E949E03C801B7010E9447041F91AD
:100940000F91FF90EF900895EF92FF920F931F93F6
:100950007A018B010E94A6030E949E03C801B70181
:100960000E944C041F910F91FF90EF900895EF9219
:10097000FF920F931F937A018B010E94A6030E949E
:100980009E03C801B7010E9451041F910F91FF906F
:10099000EF900895E4E2F1E0E80FF11D83810895FE
:1009A00080914701089580E090E0FC01EC5DFE4FEE
:1009B0001382019680329105C1F710924701089584
:1009C00080912601089580912601882311F090E0FE
:1009D00008C08091470190E0882309F491E081E00C
:1009E0009827892F08958091470108950E94DD017D
:1009F0000E94F9010E941E0208951F920F920FB6E5
:100A00000F9211242F933F934F935F936F937F9394
:100A10008F939F93AF93BF93EF93FF9381E0809366
:100A200026010E94B202982F80912401882399F414
:100A3000E0914701F0E0EC5DFE4F93838091470128
:100A40008F5F8093470180914701813210F01092AF
:100A500047010E940C02FF91EF91BF91AF919F91CE
:100A60008F917F916F915F914F913F912F910F9057
:100A70000FBE0F901F9018951F920F920FB60F92F6
:100A8000112410926E0015BC16BC109226010F9016
:100A90000FBE0F901F901895A1E21A2EAA1BBB1B28
:100AA000FD010DC0AA1FBB1FEE1FFF1FA217B3073A
:100AB000E407F50720F0A21BB30BE40BF50B661F50
:100AC000771F881F991F1A9469F760957095809514
:100AD00090959B01AC01BD01CF010895F894FFCF23
:100AE00044656275672053746172746564002C00FC
:100AF000CE049C044E024E023A02E600C800D20028
:020B00001400DF
:00000001FF
