:100000000C9434000C943E000C943E000C943E0082
:100010000C943E000C943E000C943E000C943E0068
:100020000C943E000C943E000C943E000C943E0058
:100030000C943E000C943E000C943E000C943E0048
:100040000C943E000C943E000C943E000C943E0038
:100050000C943E000C943E000C943E000C943E0028
:100060000C943E000C943E0011241FBECFEFD8E04C
:10007000DEBFCDBF0E9440000C94F3000C94000042
:10008000CF93DF93549A5C980E949B00CCE2D1E01E
:100090000E94A20083E60E94D2000E94BA0088E873
:1000A00093E1FE013197F1F70197D9F7F1CF8EEE89
:1000B00092E00197F1F708958CED95E00197F1F743
:1000C0000895813011F4259A089525980895813076
:1000D00011F42D9A08952D98089583B190E025E0AC
:1000E000969587952A95E1F781700895813011F4EE
:1000F000239A089523980895813011F42B9A089536
:100100002B980895813019F42B9A239808952B98F1
:10011000239A089583B190E033E0969587953A95B8
:10012000E1F78170089525982D980895239880E02F
:100130000E9482000895259A23982D9A81E00E94BA
:10014000820008950F931F932D9A81E00E948200F0
:100150000EEE12E0C8010197F1F780E00E948200E4
:10016000C8010197F1F72D98C8010197F1F71F9188
:100170000F9108950F931F932D9880E00E948200A5
:100180000EEE12E0C8010197F1F72D9AC801019710
:10019000F1F781E00E948200C8010197F1F71F91F9
:1001A0000F9108950F931F93CF93DF93082F10E0C3
:1001B000CEEED2E007FF02C081E001C080E00E94E5
:1001C0008200CE010197F1F72D9ACE010197F1F748
:1001D0002D981F5F183011F0000FECCFDF91CF91F9
:0A01E0001F910F910895F894FFCFCE
:00000001FF
