:100000000C9434000C9451000C9451000C94510049
:100010000C9451000C9491040C9451000C945100D8
:100020000C9451000C94D0040C9451000C94510089
:100030000C9451000C9451000C9451000C945100FC
:100040000C94BE100C9451000C9451000C9451006F
:100050000C9451000C9451000C9451000C945100DC
:100060000C9451000C94510011241FBECFEFD8E026
:10007000DEBFCDBF11E0A0E0B1E0E0E8F2E202C0F7
:1000800005900D92AE31B107D9F711E0AEE1B1E0C4
:1000900001C01D92A83CB107E1F70E9453000C94E7
:1000A0003E110C9400004F925F926F927F928F925C
:1000B0009F92AF92BF92CF92DF92EF92FF920F93F7
:1000C0001F93CF93DF930E948A040E94D9050E9458
:1000D00002060E94C00780E293E060E070E040E02A
:1000E00050E00E944D060E94980580E06EE10E945B
:1000F000190581E06EE10E94190582E062E30E9429
:100100001905549A5C98519A59985098589A54984D
:100110005C9A2098289ACEEED2E0AA24BB2464E10F
:10012000C62ED12C58E9452E5AE3552E4CE2642EAA
:1001300041E0742E30E6832E3AEE932E0E94D307D0
:100140000E94B607BC01C5010E94C1060E945F075C
:100150000E949B05C2010197F1F781E00E948F0781
:10016000A0E0B0E0BC01CD0120EE38EC40E150E071
:100170000E94E2102AE096958795779567952A95D3
:10018000D1F722E330E040E050E00E940111CA01C3
:10019000B9012AE030E040E050E00E94011181E026
:1001A000BA01A9010E9433057B018C01BE01882799
:1001B00077FD8095982F0E948A03B501882777FDE7
:1001C0008095982F0E948A030E94BB07A0E0B0E0B0
:1001D000BC01CD010E948A03C801B7010E948A03B5
:1001E0000E94D205A0E0B0E0BC01CD010E948003D6
:1001F00084EF91E0F3013197F1F70197D9F71C14DF
:100200001D041CF40894C108D108C114D10409F4D8
:100210005E014C9908C0219683E0C132D80754F0A2
:10022000C0E2D3E007C0189989CF2197D7FF02C059
:10023000C0E0D0E0C4010197F1F784E1C82ED12CD1
:100240007DCF10921E0110921F0181E0809320014A
:1002500080E090E0FC01E25EFE4F13820196803266
:100260009105C1F710924101E2E4F1E0119281E0C1
:10027000EA34F807D9F7108208951092B00010926E
:10028000B100109270008FEF87BBE8E6F0E080814C
:1002900084608083EDE6F0E0808181608083DA9A7B
:1002A000789408958FEF87BBE0E7F0E010828AE052
:1002B0008093B20084E08093B10081E087BB8083AB
:1002C0000895109270001092B1001092B20008953B
:1002D000519A599A5098589A0895599A0895599848
:1002E0000895813011F4599A08955998089589B163
:1002F000817008959C011092B20081E08093B1005A
:100300008091B2008233E0F31092B2008091B2008B
:1003100090E082179307D0F31092B1000895809176
:100320000E0190910F010E947A01089580911001B1
:10033000909111010E947A0108958091120190918B
:1003400013010E947A010895DF92EF92FF920F93BA
:100350001F93DF93CF93CDB7DEB72A970FB6F894EC
:10036000DEBF0FBECDBFFE0131969AE0DF011D92C8
:100370009A95E9F791E09A87FE01329620E030E005
:10038000482F50E061E0CA01022E02C09595879582
:100390000A94E2F780FF02C0608301C010822F5FE1
:1003A0003F4F31962830310571F7DFB6F8948E0152
:1003B0000F5F1F4F8BE0E82EF12CEC0EFD1EF801B5
:1003C0008081813011F4599A01C059980E948F019F
:1003D0000F5F1F4F0E151F0591F7DFBE2A960FB650
:1003E000F894DEBF0FBECDBFCF91DF911F910F916B
:1003F000FF90EF90DF900895FF920F931F93489B1B
:1004000021C082E017C00E94960148990068173009
:1004100009F006951F5F1830B1F70E94960189B167
:10042000F0FC07C080FF05C000931F0110921E0161
:1004300003C081E080931E0180911F011F910F91E5
:10044000FF9008950E949D01F9B000E010E0DBCF1D
:1004500080911F01089510921F01089580931F013C
:100460000895BF92CF92DF92EF92FF920F931F9366
:10047000CF93DF937B018C018FEFE816F104010528
:10048000110509F030F4C8E0D0E032E0C32ED12CE1
:1004900014C080E0E81680E0F80681E0080780E0FC
:1004A000180730F0C0E2D0E028E0C22ED12C05C001
:1004B000C0E1D0E094E0C92ED12C80E30E94A401D9
:1004C00088E70E94A401BB2417C02497D801C70164
:1004D0000C2E04C0B695A795979587950A94D2F7E8
:1004E00090E08F7090708A30910510F0C79601C02F
:1004F000C0960E94A401B3948B2D90E08C159D05AD
:1005000020F3DF91CF911F910F91FF90EF90DF903B
:10051000CF90BF900895AF92BF92CF92DF92EF92AB
:10052000FF920F931F93CF93DF937B018C016F3F5B
:1005300071058105910509F018F467E0D62E0DC00C
:10054000603030E0730731E0830730E0930718F044
:100550005FE1D52E02C04FE0D42E80E30E94A401BB
:1005600082E60E94A401C0E0D0E0CD2CDD2456013B
:100570000894A11CB11CC6018C1B9D0BA8019701FE
:1005800004C056954795379527958A95D2F7DA0195
:10059000C90181709070892B11F081E301C080E363
:1005A0000E94A4012196CA15DB0529F7DF91CF919E
:1005B0001F910F91FF90EF90DF90CF90BF90AF9081
:1005C00008958DE00E94A4018AE00E94A40108958C
:1005D00080E20E94A40108958CE20E94A401089583
:1005E0001F93CF93DF93EC0110E003C00E94A4019E
:1005F0001F5FFE01E10FF11D80818823B9F7DF91B4
:10060000CF911F9108950E94F0020E94E102089587
:100610000E94F0020E94E80208950E94F0020E94E7
:10062000EC020895BF92CF92DF92EF92FF920F9368
:100630001F936B017C01611571058105910531F4F2
:100640001092420181E080934A0123C0BB240B2D0C
:1006500010E0025E1E4FC701B6012AE030E040E024
:1006600050E00E940111F80164A3C701B6012AE01D
:1006700030E040E050E00E940111C901DA016C0154
:100680007D01B394C114D104E104F10401F7B092E7
:100690004A011F910F91FF90EF90DF90CF90BF9094
:1006A00008951F9310914A0109C01150E12FF0E005
:1006B000E25EFE4F84A1805D0E94A4011123A9F790
:1006C0001F910895EF92FF920F931F937B018C016E
:1006D00097FF0BC08DE20E94A40110950095F09445
:1006E000E094E11CF11C011D111DC801B7010E941D
:1006F00012030E9451031F910F91FF90EF900895F4
:100700000E9462030E94E10208950E9462030E9417
:10071000E80208950E94620380E091E00E94F002E6
:1007200008950E9431020E94E10208950E94310260
:100730000E94E80208950E94310280E091E00E9448
:10074000F00208950E948B020E94E10208950E9427
:100750008B020E94E80208950E948B0280E091E0E3
:100760000E94F0020895EF92FF920F931F937A0177
:100770008B010E94F0020E94E802C801B7010E94AA
:1007800080031F910F91FF90EF900895EF92FF92D9
:100790000F931F937A018B010E94F0020E94E802DE
:1007A000C801B7010E9485031F910F91FF90EF9040
:1007B0000895EF92FF920F931F937A018B010E948D
:1007C000F0020E94E802C801B7010E948A031F914B
:1007D0000F91FF90EF900895EF92FF920F931F9368
:1007E0007A018B010E94F0020E94E802C801B70161
:1007F0000E9491031F910F91FF90EF900895EF9247
:10080000FF920F931F937A018B010E94F0020E94C6
:10081000E802C801B7010E9496031F910F91FF9053
:10082000EF900895EF92FF920F931F937A018B013F
:100830000E94F0020E94E802C801B7010E949B03D7
:100840001F910F91FF90EF900895EF92FF920F93F9
:100850001F937A018B010E94F0020E94E802C801F6
:10086000B7010E94A2031F910F91FF90EF9008958E
:10087000EF92FF920F931F937A018B010E94F00277
:100880000E94E802C801B7010E94A7031F910F91BF
:10089000FF90EF900895EF92FF920F931F937A01CC
:1008A0008B010E94F0020E94E802C801B7010E9479
:1008B000AC031F910F91FF90EF900895EEE1F1E0EE
:1008C000E80FF11D8381089580914101089580E032
:1008D00090E0FC01E25EFE4F1382019680329105AA
:1008E000C1F71092410108958091200108958091EF
:1008F0002001882311F090E008C08091410190E030
:10090000882309F491E081E09827892F0895809148
:10091000410108950E9421010E943D010E94680149
:1009200008951F920F920FB60F9211242F933F93A9
:100930004F935F936F937F938F939F93AF93BF93E7
:10094000EF93FF9381E0809320010E94FC01982F98
:1009500080911E01882399F4E0914101F0E0E25E6C
:10096000FE4F9383809141018F5F8093410180917D
:100970004101813210F0109241010E945201FF9119
:10098000EF91BF91AF919F918F917F916F915F9107
:100990004F913F912F910F900FBE0F901F90189580
:1009A0001F920F920FB60F921124109270001092A6
:1009B000B1001092B200109220010F900FBE0F9064
:1009C0001F90189510924B0110924C0110924D01FE
:1009D00010924E0110924F0110925001109251014D
:1009E000109252011092530110925401109255012D
:1009F000109256011092570110925801109259010D
:100A000010925A0110925B0110925C0110925D01EC
:100A100010925E0110925F011092600110926101CC
:100A200010926201109263011092640110926501AC
:100A3000089590E0FC0123E0EE0FFF1F2A95E1F7F7
:100A4000E80FF91FE55BFE4F6083089590E0FC011D
:100A500033E0EE0FFF1F3A95E1F7E80FF91FE55B72
:100A6000FE4F808108952F923F924F925F926F9236
:100A70007F928F929F92AF92BF92CF92DF92EF922E
:100A8000FF920F931F931A012B0190E06C0153E02A
:100A9000CC0CDD1C5A95E1F7C80ED91E8BE491E011
:100AA000C80ED91EF6012081622E7724882499244D
:100AB00064E670E0621B7109882777FD8095982FA6
:100AC00045E0A42EB12CAC0CBD1C2581368147819C
:100AD00050850E94E2107B018C01C201B101A4018A
:100AE00093010E94E210E60EF71E081F191FC801AD
:100AF000B70124E630E040E050E00E942311CA0133
:100B0000F6012583F501318342839383B9011F9157
:100B10000F91FF90EF90DF90CF90BF90AF909F909C
:100B20008F907F906F905F904F903F902F9008959F
:100B30000E94E20408959C01E0916601F091670132
:100B400080818823C1F421153105A9F0219A2998C3
:100B500082E02835380710F027E532E0309389002D
:100B60002093880080918000806880938000348387
:100B7000238381E080830895E0916601F09167010D
:100B80008081813071F4809180008F778093800024
:100B9000109289001092880021982998148213825B
:100BA00010820895E0916601F0916701838194813C
:100BB000089588E691E09093670180936601219AF9
:100BC0002998E0E8F0E082E8808389E18093810061
:100BD00028E532E030938700209386001092890048
:100BE0001092880080818F77808330936A012093F0
:100BF000690110926C0110926B01109268010E94C1
:100C0000BC0508958FE691E090936E0180936D018D
:100C10001092700110926F01109272011092710186
:100C20001092740110927301109276011092750166
:100C300010927801109277011092790110927A0146
:100C400010927B0110927C0110927D0110927E0126
:100C500010927F0110928001109281011092820106
:100C6000109283011092840186E990E0A0E0B0E048
:100C70008093850190938601A0938701B0938801AA
:100C80001092890110928A0110928B0110928C01AE
:100C900010928E0110928D010895E0916D01F091F6
:100CA0006E019183808373836283558344830895A7
:100CB000E0916D01F0916E01668B778B808F918F43
:100CC0000895E0916D01F0916E01128A138A148AE1
:100CD000158A0895EF92FF920F931F93E0916D0193
:100CE000F0916E019783868371876087861B970BCF
:100CF000AA2797FDA095BA2F82879387A487B587E7
:100D0000228D338D448D558D7C018D01E21AF30ABD
:100D1000040B150BE686F786008B118B828F938F61
:100D2000A48FB58F2289338944895589280F391FAB
:100D30004A1F5B1F228B338B448B558B8689978987
:100D4000A08DB18D82179307A407B5072CF4828B71
:100D5000938BA48BB58B10C0EE24FF248701E81A77
:100D6000F90A0A0B1B0B2E153F054007510724F407
:100D7000E28AF38A048B158B1F910F91FF90EF90FD
:100D80000895AF92BF92CF92DF92EF92FF920F93AE
:100D90001F93CF93DF930E946A06C0916D01D0919B
:100DA0006E016881798180E090E02A853B854C85E1
:100DB0005D850E94E2105B016C016A817B8180E0AD
:100DC00090E02A893B894C895D890E94E2107B0171
:100DD0008C01EA0CFB1C0C1D1D1D6C817D8180E0CB
:100DE00090E02E853F85488959890E94E210E60EE1
:100DF000F71E081F191FC801B70124E630E040E0C4
:100E000050E00E942311C901DA01B7FF04C080E05D
:100E100090E0A0E0B0E09F8F8E8FDF91CF911F9187
:100E20000F91FF90EF90DF90CF90BF90AF9008951B
:100E3000E0916D01F0916E01808191810895E091C2
:100E40006D01F0916E01828193810895E0916D01B1
:100E5000F0916E01848195810895E0916D01F0918A
:100E60006E01868197810895E0916D01F0916E0188
:100E7000808591850895E0916D01F0916E01628504
:100E80007385848595850895E0916D01F0916E01DB
:100E900062897389848995890895E0916D01F09143
:100EA0006E0166857785808991890895E0916D014D
:100EB000F0916E0166897789808D918D0895E0911A
:100EC0006D01F0916E01868D978D089510929001BD
:100ED00010928F011092920110929101089580EC6E
:100EE00080937C00EAE7F0E087E080838081806C7B
:100EF0008083089590917C00907F982B90937C0044
:100F000080917A00806480937A0080917A0084FFD7
:100F1000FCCF2091780030917900C9010895CF92DB
:100F2000DF92EF92FF921F93182F0E947A07812F72
:100F30000E947A076C01812F0E947A077C01812F21
:100F40000E947A07E80EF91EEC0CFD1C812F0E940E
:100F50007A07E80EF91EF694E794F694E794C70131
:100F60001F91FF90EF90DF90CF90089580918F01B7
:100F7000909190010895809191019091920108952E
:100F80001092900110928F01109292011092910193
:100F900080EC80937C00EAE7F0E087E0808380814A
:100FA000806C808308950E94BC0588EC8A95F1F7D7
:100FB00080E00E948F07AC019093900180938F0195
:100FC00060E070E080E00E943305609391017093CF
:100FD0009201CB01089585E991E09093940180936B
:100FE0009301109295018091950184608093950101
:100FF0008091950187708093950181E090E09093B6
:101000009701809396011092980110929D01109281
:101010009E0110929F011092A0011092A1011092C6
:10102000A2011092A3011092A401109299011092B2
:101030009A0110929B0110929C011092A5011092AE
:10104000A6011092A7011092A8011092A901109276
:10105000AA011092AB011092AC011092AD01109256
:10106000AE011092AF011092B0011092B101109236
:10107000B2011092B3011092B4011092B501109216
:10108000B6011092B7011092B8011092B9011092F6
:10109000BA011092BB011092BC011092BD011092D6
:1010A000BE011092BF011092C0011092C1011092B6
:1010B000C2011092C3011092C4011092C501109296
:1010C000C6011092C70108957F928F929F92AF92AE
:1010D000BF92CF92DF92EF92FF920F931F93DF9315
:1010E000CF93CDB7DEB72A970FB6F894DEBF0FBE09
:1010F000CDBF8C01C0909301D0909401F601808106
:1011000080FF31C00130110511F496E019C00230A2
:10111000110511F495E014C00430110511F494E0A8
:101120000FC00830110511F493E00AC00031110519
:1011300011F492E005C090E00032110509F491E04D
:10114000F89484B7877F84BF809160008068809323
:10115000600080916000886180936000906490934B
:101160006000789467C081FD65C082FF63C0DE01C6
:101170001196E4E1F1E08AE001900D928150E1F7EF
:10118000980140E050E060E07BE187EB90E00E9456
:101190000111722E832E942EE52E5E010894A11C5F
:1011A000B11CC901DA019C01AD01FF2414C0F50195
:1011B000219131915F0140E050E0672D782D892D1C
:1011C0009E2D0E940111C901DA019C01AD01F39429
:1011D000F5E0FF1631F02F3F31054105510509F0CB
:1011E00030F78F2D815014BC15BC10926E0015BACB
:1011F00017BC18BC16BC17BC882311F481E00FC0C3
:10120000813011F482E00BC0823011F483E007C01A
:10121000833011F484E003C0843011F485E085BD8F
:10122000822F8095F6018383838186BD81E0809340
:101230006E007894F601128301832A960FB6F89413
:10124000DEBF0FBECDBFCF91DF911F910F91FF90F9
:10125000EF90DF90CF90BF90AF909F908F907F9056
:101260000895E0919301F091940180890895E091AF
:101270009301F091940180898F3318F480898F5FF6
:10128000808B0895E0919301F091940180898823E7
:1012900019F080898150808B0895E0919301F0913D
:1012A0009401108A0895E0919301F09194012085B2
:1012B000318542855385B901CA010895E0919301B2
:1012C000F09194012485358546855785B901CA0179
:1012D0000895E0919301F09194016087718782876E
:1012E00093870895E0919301F09194016487758745
:1012F000868797870895EF92FF920F931F93E0914F
:101300009301F091940120853185428553857C01BC
:1013100000E010E0E20EF31E041F151F808591858A
:10132000A285B3858E159F05A007B107B8F31F915D
:101330000F91FF90EF900895BC01E0919301F0911F
:101340009401208531854285538584819581A681CC
:10135000B781281739074A075B0798F3208531853D
:1013600042855385CB01A0E0B0E0820F931FA41FFC
:10137000B51F84839583A683B7830895EF92FF9268
:101380000F931F93E0919301F0919401248535858B
:10139000468557857C0100E010E0E20EF31E041F35
:1013A000151F80859185A285B3858E159F05A007A1
:1013B000B107B8F31F910F91FF90EF900895E0915E
:1013C0009301F091940190E025E130E0AC01429F5F
:1013D000C001439F900D529F900D1124E80FF91FFB
:1013E000818986958F700895E0919301F091940121
:1013F00090E025E130E0AC01429FC001439F900D99
:10140000529F900D1124E80FF91F6F70660F8189AC
:10141000817E862B818B0895E0919301F091940158
:1014200090E025E130E0AC01429FC001439F900D68
:10143000529F900D1124E80FF91FDF015E96668D13
:1014400011967C91119712968C91129713969C91FC
:101450000895E0919301F091940190E025E130E04E
:10146000DC01A29FC001A39F900DB29F900D11249B
:10147000E80FF91F468F578F60A371A30895E0917D
:101480009301F091940190E025E130E0AC01429F9E
:10149000C001439F900D529F900D1124E80FF91F3A
:1014A000DF015296628911967C91119712968C9168
:1014B000129713969C910895E0919301F0919401F5
:1014C00090E025E130E0DC01A29FC001A39F900DD8
:1014D000B29F900D1124E80FF91F428B538B648B40
:1014E000758B0895E0919301F091940190E025E1CE
:1014F00030E0AC01429FC001439F900D529F900D80
:101500001124E80FF91FDF015696668911967C9128
:10151000119712968C91129713969C910895E091D1
:101520009301F091940190E025E130E0DC01A29F6D
:10153000C001A39F900DB29F900D1124E80FF91FD9
:10154000468B578B608F718F0895E0919301F091D6
:10155000940190E025E130E0AC01429FC001439F3F
:10156000900D529F900D1124E80FF91FDF015A963C
:10157000628D11967C91119712968C911297139609
:101580009C910895E0919301F091940190E025E100
:1015900030E0DC01A29FC001A39F900DB29F900D8F
:1015A0001124E80FF91F428F538F648F758F0895B0
:1015B000E0919301F091940190E025E130E0AC01DD
:1015C000429FC001439F900D529F900D1124E80F40
:1015D000F91FDF01929662A111967C9111971296E4
:1015E0008C91129713969C910895E0919301F0913C
:1015F000940190E025E130E0DC01A29FC001A39FAF
:10160000900DB29F900D1124E80FF91F42A353A330
:1016100064A375A30895E0919301F091940190E083
:1016200025E130E0AC01429FC001439F900D529FE5
:10163000900D1124E80FF91F818981700895E091C0
:101640009301F091940190E025E130E0AC01429FDC
:10165000C001439F900D529F900D1124E80FF91F78
:1016600081898160818B0895E0919301F0919401CB
:1016700090E025E130E0AC01429FC001439F900D16
:10168000529F900D1124E80FF91F81898E7F818B65
:101690000895E0919301F091940190E025E130E00C
:1016A000AC01429FC001439F900D529F900D1124A9
:1016B000E80FF91F8189168E178E10A211A2128AC7
:1016C000138A148A158A168A178A108E118E128E22
:1016D000138E148E158E12A213A214A215A2807E50
:1016E000818B08950E94490B0895E0919301F09138
:1016F000940190E025E130E0AC01429FC001439F9E
:10170000900D529F900D1124E80FF91F9189892F98
:1017100086958F70813019F0917E9260918B08953B
:10172000E0919301F091940190E025E130E0AC016B
:10173000429FC001439F900D529F900D1124E80FCE
:10174000F91F9189892F86958F70823019F0917ECB
:101750009460918B0895A0919301B091940190E0D1
:1017600025E130E0829FF001839FF00D929FF00D04
:101770001124EA0FFB1F818986958F7019F5168E4B
:10178000178E10A211A2128E138E148E158E468BF8
:10179000578B608F718F1C968D919D910D90BC9190
:1017A000A02D840F951FA61FB71F828B938BA48B30
:1017B000B58B9189892F86958F70813019F0917E34
:1017C0009260918B0895DF92EF92FF920F931F9397
:1017D000D82E7A018B010E94490B8D2DB801A701EB
:1017E0000E94AB0B1F910F91FF90EF90DF90089537
:1017F000EF92FF920F931F93A0919301B0919401E8
:1018000090E025E130E0829FF001839FF00D929FF0
:10181000F00D1124EA0FFB1F818986958F708130AE
:10182000B1F51C968D919D910D90BC91A02D2289B2
:10183000338944895589281B390B4A0B5B0B228F4E
:10184000338F448F558FE688F788008D118DD8012E
:10185000C701821B930BA40BB50B868F978FA0A398
:10186000B1A3211531054105510589F5128A138A65
:10187000148A158A128E138E148E158EE68EF78EAC
:1018800000A311A38189817E8860818B20C0823072
:10189000F1F41C968D919D910D90BC91A02D228DFF
:1018A000338D448D558D820F931FA41FB51F828BDE
:1018B000938BA48BB58B86899789A08DB18D821B64
:1018C000930BA40BB50B868F978FA0A3B1A31F9189
:1018D0000F91FF90EF90089540E0E0919301F09117
:1018E000940190E025E130E0BC01629FC001639F5C
:1018F000900D729F900D1124E80FF91F8189869534
:101900008F70843009F441E0842F0895482FE091CE
:101910009301F0919401282F30E085E190E0BC0123
:10192000269FC001279F900D369F900D1124E80F30
:10193000F91F818986958F70843011F080E00895B9
:10194000842F0E94490B81E00895E0919301F0916A
:10195000940190E025E130E0DC01A29FC001A39F4B
:10196000900DB29F900D1124E80FF91F818980FD21
:101970000FC0868D978DA0A1B1A1840F951FA61FC2
:10198000B71F82A393A3A4A3B5A381898160818B90
:101990000895E0919301F091940190E025E130E009
:1019A000AC01429FC001439F900D529F900D1124A6
:1019B000E80FF91F22A133A144A155A1868D978D6F
:1019C000A0A1B1A1281B390B4A0B5B0B57FF04C028
:1019D00020E030E040E050E0B901CA010895CF9323
:1019E000DF93C0919301D0919401682F70E085E15D
:1019F00090E0689FF001699FF00D789FF00D112431
:101A0000EC0FFD1F22A133A144A155A1868D978D16
:101A1000A0A1B1A1281B390B4A0B5B0B57FD07C0D6
:101A2000211531054105510511F020E012C020E0DB
:101A300085E190E0AC01649FC001659F900D749FAB
:101A4000900D1124C80FD91F898980FF21E081E002
:101A50002827822FDF91CF9108951F93182F0E947E
:101A6000EF0C813011F080E016C0E0919301F0910D
:101A70009401212F30E085E190E0AC01249FC0016A
:101A8000259F900D349F900D1124E80FF91F818937
:101A90008E7F818B81E01F91089580E00E94F80B7A
:101AA000089580E00E94490B0895E0919301F09120
:101AB000940190E02DE030E0AC01429FC001439FD3
:101AC000900D529F900D1124E80FF91F86A1869565
:101AD0008F700895E0919301F091940190E02DE0D2
:101AE00030E0AC01429FC001439F900D529F900D8A
:101AF0001124E80FF91F6F70660F86A1817E862B77
:101B000086A30895E0919301F091940190E02DE077
:101B100030E0AC01429FC001439F900D529F900D59
:101B20001124E80FF91FDF019B9663A511967C91A4
:101B3000119712968C91129713969C910895E091AB
:101B40009301F091940190E02DE030E0DC01A29F40
:101B5000C001A39F900DB29F900D1124E80FF91FB3
:101B600043A754A765A776A70895E0919301F09144
:101B7000940190E02DE030E0AC01429FC001439F12
:101B8000900D529F900D1124E80FF91FDF019796D9
:101B900067A111967C91119712968C9112971396CA
:101BA0009C910895E0919301F091940190E02DE0D3
:101BB00030E0DC01A29FC001A39F900DB29F900D69
:101BC0001124E80FF91F47A350A761A772A7089532
:101BD000E0919301F091940190E02DE030E0AC01B0
:101BE000429FC001439F900D529F900D1124E80F1A
:101BF000F91FDF019F9667A511967C9111971296A8
:101C00008C91129713969C910895E0919301F09115
:101C1000940190E02DE030E0DC01A29FC001A39F81
:101C2000900DB29F900D1124E80FF91F47A750ABFC
:101C300061AB72AB0895E0919301F091940190E053
:101C40002DE030E0AC01429FC001439F900D529FB8
:101C5000900D1124E80FF91F86A181700895E0917D
:101C60009301F091940190E02DE030E0AC01429FAF
:101C7000C001439F900D529F900D1124E80FF91F52
:101C800086A1816086A30895E0919301F09194016B
:101C900090E02DE030E0AC01429FC001439F900DE9
:101CA000529F900D1124E80FF91F86A18E7F86A305
:101CB0000895E0919301F091940190E02DE030E0DF
:101CC000AC01429FC001439F900D529F900D112483
:101CD000E80FF91F17A210A611A612A613A614A6A4
:101CE00015A616A686A1807E86A30895E09193018D
:101CF000F091940190E02DE030E0AC01429FC001F2
:101D0000439F900D529F900D1124E80FF91F17A2C9
:101D100010A611A612A613A614A615A616A686A18D
:101D2000807E86A30895E0919301F091940190E064
:101D30002DE030E0AC01429FC001439F900D529FC7
:101D4000900D1124E80FF91F96A1892F86958F70A9
:101D5000813019F0917E926096A30895E0919301ED
:101D6000F091940190E02DE030E0AC01429FC00181
:101D7000439F900D529F900D1124E80FF91F96A1DB
:101D8000892F86958F70823019F0917E946096A38A
:101D90000895A0919301B091940190E02DE030E07E
:101DA000829FF001839FF00D929FF00D1124EA0FA6
:101DB000FB1F86A186958F70D9F443A754A765A70A
:101DC00076A71C968D919D910D90BC91A02D840FAE
:101DD000951FA61FB71F87A390A7A1A7B2A796A17B
:101DE000892F86958F70813019F0917E926096A32D
:101DF0000895CF93DF93E0919301F0919401A82F80
:101E0000B0E02DE030E0E901AC9F9001AD9F300DD6
:101E1000BC9F300D1124E20FF31F17A210A611A6CC
:101E200012A613A614A615A616A696A1907E96A392
:101E30000E94C90EDF91CF910895A0919301B091B6
:101E4000940190E02DE030E0829FF001839FF00D3F
:101E5000929FF00D1124EA0FFB1F86A186958F70CB
:101E6000813019F51C962D913D914D915C911F97F4
:101E700087A190A5A1A5B2A5821B930BA40BB50BBE
:101E800083A794A7A5A7B6A70097A105B10509F553
:101E900017A210A611A612A613A614A615A616A67A
:101EA00086A1807E886086A30895823091F41C9676
:101EB0002D913D914D915C911F9783A594A5A5A56A
:101EC000B6A5820F931FA41FB51F87A390A7A1A734
:101ED000B2A7089540E0E0919301F091940190E061
:101EE0002DE030E0BC01629FC001639F900D729FA6
:101EF000900D1124E80FF91F86A186958F7084300C
:101F000009F441E0842F0895E0919301F091940148
:101F100090E02DE030E0AC01429FC001439F900D66
:101F2000529F900D1124E80FF91F86A186958F709E
:101F3000843011F080E0089517A210A611A612A611
:101F400013A614A615A616A686A1807E86A381E0F8
:101F50000895E0919301F091940190E02DE030E03C
:101F6000DC01A29FC001A39F900DB29F900D112490
:101F7000E80FF91F86A180FD0FC083A594A5A5A534
:101F8000B6A5841B950BA60BB70B87A790ABA1AB8F
:101F9000B2AB86A1816086A30895E0919301F09190
:101FA000940190E02DE030E0AC01429FC001439FDE
:101FB000900D529F900D1124E80FF91F23A534A511
:101FC00045A556A587A590A9A1A9B2A9281B390B9B
:101FD0004A0B5B0B57FF04C020E030E040E050E0CC
:101FE000B901CA010895CF93DF93C0919301D091B5
:101FF0009401682F70E08DE090E0689FF001699F88
:10200000F00D789FF00D1124EC0FFD1F23A534A5D2
:1020100045A556A587A590A9A1A9B2A9281B390B4A
:102020004A0B5B0B57FD07C02115310541055105D2
:1020300011F020E012C020E08DE090E0AC01649F40
:10204000C001659F900D749F900D1124C80FD91F7A
:102050008EA180FF21E081E02827822FDF91CF91A0
:1020600008951F93182F0E94F30F813011F080E024
:1020700016C0E0919301F0919401212F30E08DE0A2
:1020800090E0AC01249FC001259F900D349F900DDE
:102090001124E80FF91F86A18E7F86A381E01F918E
:1020A000089580E00E941D0F0895E0919301F09142
:1020B000940117A210A611A612A613A614A615A67F
:1020C00016A686A1807E86A308950E94510D0E94C7
:1020D000551008950F931F938C010E94EB07C801C0
:1020E0000E9464080E946510E0919301F0919401B0
:1020F00080898F3318F480898F5F808B1F910F91B7
:1021000008950E944D0D0E9451100895CF93DF93C2
:10211000C0919301D091940188859985AA85BB854A
:102120000196A11DB11D88879987AA87BB878B81DE
:102130008093B200688579858A859B8529813A815B
:1021400040E050E00E940111611571058105910583
:1021500091F48C859D85AE85BF850196A11DB11D2D
:102160008C879D87AE87BF878889882321F418864E
:1021700019861A861B86DF91CF9108951F920F92C0
:102180000FB60F9211242F933F934F935F936F934A
:102190007F938F939F93AF93BF93EF93FF930E948F
:1021A0008610FF91EF91BF91AF919F918F917F9199
:1021B0006F915F914F913F912F910F900FBE0F90B4
:1021C0001F901895629FD001739FF001829FE00DD0
:1021D000F11D649FE00DF11D929FF00D839FF00DA6
:1021E000749FF00D659FF00D9927729FB00DE11D52
:1021F000F91F639FB00DE11DF91FBD01CF0111242F
:102200000895A1E21A2EAA1BBB1BFD010DC0AA1F37
:10221000BB1FEE1FFF1FA217B307E407F50720F04F
:10222000A21BB30BE40BF50B661F771F881F991FCA
:102230001A9469F760957095809590959B01AC0113
:10224000BD01CF01089597FB092E05260ED057FD3D
:1022500004D0D7DF0AD0001C38F450954095309553
:1022600021953F4F4F4F5F4F0895F6F7909580951A
:10227000709561957F4F8F4F9F4F0895F894FFCFD2
:102280002C00CE049C044E024E023A02E600C80026
:0E229000D2001400010008004000000100040C
:00000001FF
