:100000000C944B000C9468000C9468000C946800ED
:100010000C9499060C9468000C9468000C94680089
:100020000C9468000C9468000C9468000C946800B0
:100030000C9468000C9468000C9468000C946800A0
:100040000C94D8060C9468000C9468000C9468001A
:100050000C9468000C9468000C9468000C94680080
:100060000C9468000C946800084AD73B3BCE016EA4
:1000700084BCBFFDC12F3D6C74319ABD56833DDAFF
:100080003D00C77F11BED9E4BB4C3E916BAAAABE0E
:10009000000000803F0011241FBECFEFD8E0DEBF7C
:1000A000CDBF11E0A0E0B1E0E2E8F4E102C00590CC
:1000B0000D92A232B107D9F711E0A2E2B1E001C07E
:1000C0001D92A738B107E1F70E946A000C943F0A1D
:1000D0000C9400002F923F924F925F926F927F920A
:1000E0008F929F92AF92BF92CF92DF92EF92FF9248
:1000F0000F931F93CF93DF93549A5C980E94510300
:100100000E94920680E091E00E9455050E948002C4
:10011000C0E7D7E10E9433037C010E9415035C0114
:100120000E94F702AA2797FDA095BA2FBC01CD0126
:100130000E943E083B014C010027F7FC0095102F60
:10014000C801B7010E943E08A40193010E94A307C1
:100150000E947B0720E030E048EC52E40E94F60861
:100160001B012C01CC24B7FCC094DC2CC601B501CA
:100170000E943E08A40193010E94A3070E947B07EE
:1001800020E030E048EC52E40E94F6087B018C014C
:10019000C201B10123E333E345E652E40E94F608CD
:1001A0000E940B080E94DC05C801B70123E333E37A
:1001B00045E652E40E94F6080E940B080E94DC0506
:1001C0000E943305CE010197F1F7A4CF10922201CE
:1001D00010922301089580E58A95F1F7089580EA49
:1001E0008A95F1F7089588E08A95F1F708958130AE
:1001F00011F43C9A08953C980895813011F4449A82
:10020000089544980895813019F4449A3C980895CB
:1002100044983C9A089586B190E024E0969587959D
:100220002A95E1F781700895813011F43D9A08957F
:100230003D980895813011F4459A089545980895A0
:10024000813019F4459A3D98089545983D9A08954E
:1002500086B190E035E0969587953A95E1F7817003
:1002600008953C9880E00E94030108953D9880E045
:100270000E94200108953C9A3D9881E00E9403016C
:1002800081E00E94200108951F9381E00E940301F4
:1002900081E00E94200110E5812F8A95F1F780E02E
:1002A0000E942001812F8A95F1F780E00E940301CE
:1002B0001A95F1F71F9108951F9380E00E940301A2
:1002C00080E00E94200110E5812F8A95F1F781E0FE
:1002D0000E940301812F8A95F1F781E00E9420019D
:1002E0001A95F1F71F910895EF92FF920F931F93C4
:1002F000082F10E050E5F52E48E0E42E07FF02C07D
:1003000081E001C080E00E9420018F2D8A95F1F7E5
:1003100081E00E9403018F2D8A95F1F780E00E9411
:1003200003018E2D8A95F1F71F5F183011F0000F31
:10033000E5CF1F910F91FF90EF900895FF920F93DB
:100340001F9381E00E94200110E000E060E5F62E9E
:10035000110F8F2D8A95F1F781E00E9403013599E5
:1003600011608F2D8A95F1F780E00E9403010F5FE5
:10037000083071F780E58A95F1F781E00E9403016A
:10038000812F1F910F91FF9008951F9380E00E948D
:10039000200110E5812F8A95F1F781E00E94030189
:1003A0001A95F1F780E00E9403011F9108951F93B1
:1003B00081E00E94200110E5812F8A95F1F781E00C
:1003C0000E9403011A95F1F780E00E9403011F913A
:1003D00008950F931F9381E00E94200100E5802F74
:1003E0008A95F1F781E00E94030116B10A95F1F7B1
:1003F00080E00E94030188E08A95F1F71295169536
:1004000017701095812F81701F910F9108951F9380
:10041000182F0E944401812F0E9474010E94E9015B
:10042000182F0E945C01812F1F9108951F9310E0E7
:10043000812F0E940702813011F4812F03C01F5FBA
:100440001F3FB1F71F910895DF92EF92FF920F9334
:100450001F93182F0E944401809122010E94740171
:100460000E94E901E82E812F0E9474010E94E90197
:10047000F82E0E945C010E944401809123010E9499
:1004800074010E94E901182F0E949E01D82E0E943B
:10049000E901082F0E945C01FF0C110F110F1F29A9
:1004A0001E29000F000F000F012B073011F08FEFF6
:1004B00001C08D2D1F910F91FF90EF90DF90089557
:1004C0000F931F93182F062F0E9444018091220141
:1004D0000E9474010E94E901812F0E9474010E9410
:1004E000E901802F0E9474010E94E9010E945C01D1
:1004F0001F910F9108958BE660E40E9460020895B9
:100500008BE660E00E94600208950F931F9381E4E0
:100510000E942402182F00E082E40E94240290E04E
:10052000802B912B64E571E00E94DB099B012C5D1F
:100530003F4FC9011F910F910895EF92FF920F93C2
:100540001F9387E40E942402F82EEE2488E40E9480
:10055000240290E0E82AF92A0027F7FC0095102FE2
:1005600085E0B801A7010E941307CB011F910F91ED
:10057000FF90EF900895EF92FF920F931F9385E401
:100580000E942402F82EEE2486E40E94240290E0C9
:10059000E82AF92A0027F7FC0095102F84E0B8011B
:1005A000A7010E941307CB011F910F91FF90EF90BD
:1005B0000895EF92FF920F931F9383E40E94240209
:1005C000F82EEE2484E40E94240290E0E82AF92A1E
:1005D0000027F7FC0095102F83E0B801A7010E94C7
:1005E0001307CB011F910F91FF90EF900895EF92A9
:1005F000FF920F931F938FE30E942402F82EEE24A4
:1006000080E40E94240290E0E82AF92A0027F7FCFF
:100610000095102F82E0B801A7010E941307CB01BB
:100620001F910F91FF90EF900895EF92FF920F931B
:100630001F938DE30E942402F82EEE248EE30E9485
:10064000240290E0E82AF92A0027F7FC0095102FF1
:1006500081E0B801A7010E941307CB011F910F9100
:10066000FF90EF900895EF92FF920F931F938BE30B
:100670000E942402F82EEE248CE30E94240290E0D3
:10068000E82AF92A0027F7FC0095102F80E0B8012E
:10069000A7010E941307CB011F910F91FF90EF90CC
:1006A000089510922201109223010E943B010E94A2
:1006B0001602809322018F5F809323010E947807A6
:1006C00080E06AE00E94F90681E06AE00E94F90693
:1006D00082E06AE00E94F90683E06AE00E94F9067F
:1006E00084E06AE00E94F90685E06AE00E94F9066B
:1006F0000895109224011092250181E08093260133
:1007000080E090E0FC01EC5DFE4F138201968032A8
:100710009105C1F710924701E8E4F1E0119281E000
:10072000E035F807D9F71082089514BC15BC109273
:100730006E008FEF85BBE8E6F0E080818260808309
:10074000ECE6F0E0808180648083D99A7894089503
:100750008FEF85BBEEE6F0E0108288EC86BD84E08A
:1007600085BD81E085BB8083089510926E0015BC25
:1007700016BC0895559A5D9A3E98469A08955D9ADA
:1007800008955D980895813011F45D9A08955D98FB
:10079000089586B190E026E0969587952A95E1F731
:1007A000817008959C0116BC81E085BD86B58233B9
:1007B000E8F316BC86B590E082179307D8F315BC12
:1007C000089580911C0190911D010E94D20308950B
:1007D00080911E0190911F010E94D2030895809183
:1007E0002001909121010E94D2030895DF92EF929F
:1007F000FF920F931F93DF93CF93CDB7DEB72A9766
:100800000FB6F894DEBF0FBECDBFFE0131969AE061
:10081000DF011D929A95E9F791E09A87FE013296E1
:1008200020E030E0482F50E061E0CA01022E02C013
:10083000959587950A94E2F780FF02C0608301C016
:1008400010822F5F3F4F31962830310571F7DFB6A8
:10085000F8948E010F5F1F4F3BE0E32EF12CEC0E5E
:10086000FD1EF8018081813011F45D9A01C05D9810
:100870000E94E1030F5F1F4F0E151F0591F7DFBEAA
:100880002A960FB6F894DEBF0FBECDBFCF91DF9191
:100890001F910F91FF90EF90DF900895FF920F93BB
:1008A0001F93369B21C082E017C00E94E80336994F
:1008B0000068173009F006951F5F1830B1F70E94E5
:1008C000E80386B1F6FC07C086FF05C0009325014A
:1008D0001092240103C081E08093240180912501BE
:1008E0001F910F91FF9008950E94EF03F6B000E072
:1008F00010E0DBCF80912501089510922501089525
:10090000809325010895BF92CF92DF92EF92FF92DC
:100910000F931F93CF93DF937B018C018FEFE8162A
:10092000F1040105110509F030F4C8E0D0E062E0FF
:10093000C62ED12C14C080E0E81680E0F80681E0D5
:10094000080780E0180730F0C0E2D0E058E0C52E7C
:10095000D12C05C0C0E1D0E044E0C42ED12C80E30E
:100960000E94F60388E70E94F603BB2417C0249771
:10097000D801C7010C2E04C0B695A7959795879509
:100980000A94D2F790E08F7090708A30910510F041
:10099000C79601C0C0960E94F603B3948B2D90E0D9
:1009A0008C159D0520F3DF91CF911F910F91FF9042
:1009B000EF90DF90CF90BF900895AF92BF92CF920B
:1009C000DF92EF92FF920F931F93CF93DF937B0100
:1009D0008C016F3F71058105910509F018F4F7E06E
:1009E000DF2E0DC0603030E0730731E0830730E068
:1009F000930718F0EFE1DE2E02C07FE0D72E80E3F0
:100A00000E94F60382E60E94F603C0E0D0E0CD2CFF
:100A1000DD2456010894A11CB11CC6018C1B9D0B42
:100A2000A801970104C056954795379527958A9553
:100A3000D2F7DA01C90181709070892B11F081E33E
:100A400001C080E30E94F6032196CA15DB0529F751
:100A5000DF91CF911F910F91FF90EF90DF90CF909A
:100A6000BF90AF9008958DE00E94F6038AE00E9447
:100A7000F603089580E20E94F60308958CE20E9436
:100A8000F60308951F93CF93DF93EC0110E003C0AA
:100A90000E94F6031F5FFE01E10FF11D8081882394
:100AA000B9F7DF91CF911F9108950E9442050E94EE
:100AB000330508950E9442050E943A0508950E9458
:100AC00042050E943E050895BF92CF92DF92EF92B9
:100AD000FF920F931F936B017C01611571058105D6
:100AE000910531F41092480181E08093500123C0B8
:100AF000BB240B2D10E00C5D1E4FC701B6012AE090
:100B000030E040E050E00E94EE09F80164A3C70124
:100B1000B6012AE030E040E050E00E94EE09C90151
:100B2000DA016C017D01B394C114D104E104F10434
:100B300001F7B09250011F910F91FF90EF90DF905D
:100B4000CF90BF9008951F931091500109C011508C
:100B5000E12FF0E0EC5DFE4F84A1805D0E94F60382
:100B60001123A9F71F910895EF92FF920F931F93FE
:100B70007B018C0197FF0BC08DE20E94F60310955C
:100B80000095F094E094E11CF11C011D111DC801B9
:100B9000B7010E9464050E94A3051F910F91FF9069
:100BA000EF9008950E94B4050E94330508950E94B5
:100BB000B4050E943A0508950E94B4058EE091E0C4
:100BC0000E94420508950E9483040E9433050895FF
:100BD0000E9483040E943A0508950E9483048EE0D7
:100BE00091E00E9442050895EF92FF920F931F93A8
:100BF0007A018B010E9442050E943A05C801B701A3
:100C00000E94D2051F910F91FF90EF900895EF92EF
:100C1000FF920F931F937A018B010E9442050E945D
:100C20003A05C801B7010E94D7051F910F91FF90A7
:100C3000EF900895EF92FF920F931F937A018B012B
:100C40000E9442050E943A05C801B7010E94DC05D6
:100C50001F910F91FF90EF900895EF92FF920F93E5
:100C60001F937A018B010E9442050E943A05C80138
:100C7000B7010E94E3051F910F91FF90EF90089537
:100C8000EF92FF920F931F937A018B010E9442050E
:100C90000E943A05C801B7010E94E8051F910F9113
:100CA000FF90EF900895EF92FF920F931F937A01B8
:100CB0008B010E9442050E943A05C801B7010E94BB
:100CC000ED051F910F91FF90EF900895E4E2F1E0A0
:100CD000E80FF11D8381089580914701089580E018
:100CE00090E0FC01EC5DFE4F13820196803291058D
:100CF000C1F71092470108958091260108958091CF
:100D00002601882311F090E008C08091470190E00F
:100D1000882309F491E081E09827892F0895809134
:100D2000470108950E9479030E9495030E94BA0327
:100D300008951F920F920FB60F9211242F933F9395
:100D40004F935F936F937F938F939F93AF93BF93D3
:100D5000EF93FF9381E0809326010E944E04982F29
:100D600080912401882399F4E0914701F0E0EC5D43
:100D7000FE4F9383809147018F5F8093470180915D
:100D80004701813210F0109247010E94A803FF91A1
:100D9000EF91BF91AF919F918F917F916F915F91F3
:100DA0004F913F912F910F900FBE0F901F9018956C
:100DB0001F920F920FB60F92112410926E0015BC65
:100DC00016BC109226010F900FBE0F901F90189521
:100DD000E1E5F1E010821182128213821482158201
:100DE000168217821086399681E0E738F80791F766
:100DF000089590E0FC0123E0EE0FFF1F2A95E1F734
:100E0000E80FF91FEF5AFE4F6083089590E0FC0150
:100E100033E0EE0FFF1F3A95E1F7E80FF91FEF5AA5
:100E2000FE4F808108952F923F924F925F926F9272
:100E30007F928F929F92AF92BF92CF92DF92EF926A
:100E4000FF920F931F931A012B0190E06C0153E066
:100E5000CC0CDD1C5A95E1F7C80ED91E81E591E056
:100E6000C80ED91EF6012081622E77248824992489
:100E700064E670E0621B7109882777FD8095982FE2
:100E800045E0A42EB12CAC0CBD1C258136814781D8
:100E900050850E94BC097B018C01C201B101A401F3
:100EA00093010E94BC09E60EF71E081F191FC80116
:100EB000B70124E630E040E050E00E94100ACA0189
:100EC000F6012583F501318342839383B9011F9194
:100ED0000F91FF90EF90DF90CF90BF90AF909F90D9
:100EE0008F907F906F905F904F903F902F900895DC
:100EF0000E94E8060895DF93DD27B92FBF7740E809
:100F00005FE31616170648075B0710F4D92F67D161
:100F10009F938F937F936F93CCD1E8E6F0E0F2D06C
:100F200024D12F913F914F915F916CD1DD2349F0F6
:100F30009058A2EA2AED3FE049EC5FE3D0785D27C4
:100F4000C8D1DF9112C10CD010C108D140F0FFD040
:100F500030F021F45F3F19F0CCC051113AC1CFC03D
:100F600015D198F39923C9F35523B1F3951B550B6C
:100F7000BB27AA2762177307840738F09F5F5F4F6C
:100F8000220F331F441FAA1FA9F333D00E2E3AF0AD
:100F9000E0E830D091505040E695001CCAF729D0C7
:100FA000FE2F27D0660F771F881FBB1F2617370716
:100FB0004807AB07B0E809F0BB0B802DBF01FF2746
:100FC00093585F4F2AF09E3F510568F092C001C1CF
:100FD0005F3FECF3983EDCF3869577956795B79580
:100FE000F7959F5FC9F7880F911D9695879597F99B
:100FF0000895E1E0660F771F881FBB1F6217730714
:101000008407BA0720F0621B730B840BBA0BEE1F28
:1010100088F7E095089504D06894B111DAC0089576
:10102000BDD088F09F5790F0B92F9927B751A0F005
:10103000D1F0660F771F881F991F1AF0BA95C9F76C
:1010400012C0B13081F0C4D0B1E00895C1C0672FA3
:10105000782F8827B85F39F0B93FCCF3869577951C
:101060006795B395D9F73EF4909580957095619505
:101070007F4F8F4F9F4F0895E89409C097FB3EF430
:1010800090958095709561957F4F8F4F9F4F9923D5
:10109000A9F0F92F96E9BB279395F6958795779553
:1010A0006795B795F111F8CFFAF4BB0F11F460FF13
:1010B0001BC06F5F7F4F8F4F9F4F16C0882311F06B
:1010C00096E911C0772321F09EE8872F762F05C07F
:1010D000662371F096E8862F70E060E02AF09A951A
:1010E000660F771F881FDAF7880F9695879597F90F
:1010F000089597F99F6780E870E060E008959FEF9A
:1011000080EC0895DF93CF931F930F93FF92EF929C
:10111000DF927B018C01689405C0DA2EEF0172D05A
:10112000FE01E894A5912591359145915591AEF335
:10113000EF01CFD0FE019701A801DA9479F7DF9093
:10114000EF90FF900F911F91CF91DF9108950024B0
:101150000A941616170618060906089500240A941C
:1011600012161306140605060895092E0394000CA2
:1011700011F4882352F0BB0F40F4BF2B11F460FF31
:1011800004C06F5F7F4F8F4F9F4F089557FD90585A
:10119000440F551F59F05F3F71F04795880F97FB3B
:1011A000991F61F09F3F79F08795089512161306F5
:1011B0001406551FF2CF4695F1DF08C01616170624
:1011C0001806991FF1CF8695710561050894089559
:1011D000E894BB2766277727CB0197F908959B01F1
:1011E000AC0160E070E080E89FE3ADCE0BD0BDCFF6
:1011F000AEDF28F0B3DF18F0952309F07ACF7FCF68
:101200001124E7CFC3DFA0F3959FD1F3950F50E0F2
:10121000551F629FF001729FBB27F00DB11D639FA8
:10122000AA27F00DB11DAA1F649F6627B00DA11D4E
:10123000661F829F2227B00DA11D621F739FB00DF4
:10124000A11D621F839FA00D611D221F749F332764
:10125000A00D611D231F849F600D211D822F762FFD
:101260006A2F11249F5750408AF0E1F088234AF0FA
:10127000EE0FFF1FBB1F661F771F881F9150504046
:10128000A9F79E3F510570F034CFA3CF5F3FECF339
:10129000983EDCF3869577956795B795F795E79532
:1012A0009F5FC1F7FE2B880F911D9695879597F943
:1012B00008959B01AC019ACF4ADF30F04FDF20F058
:1012C00031F49F3F11F41EF41ACF0EF4E095E7FBC2
:1012D00010CFE92F5BDF80F3BA176207730784072B
:1012E000950718F071F49EF573CF0EF4E0950B2E70
:1012F000BA2FA02D0B01B90190010C01CA01A00168
:101300001124FF27591B99F0593F50F4503E68F1C2
:101310001A16F040A22F232F342F4427585FF3CF03
:10132000469537952795A795F0405395C9F77EF4D4
:101330001F16BA0B620B730B840BBAF09150A1F01D
:10134000FF0FBB1F661F771F881FC2F70EC0BA0FA3
:10135000621F731F841F48F4879577956795B7952B
:10136000F7959E3F08F0B3CF9395880F08F0992723
:10137000EE0F979587950895629FD001739FF001B6
:10138000829FE00DF11D649FE00DF11D929FF00D15
:10139000839FF00D749FF00D659FF00D9927729F4C
:1013A000B00DE11DF91F639FB00DE11DF91FBD01D7
:1013B000CF011124089597FB092E07260AD077FD47
:1013C00004D049D006D000201AF4709561957F4F63
:1013D0000895F6F7909581959F4F0895A1E21A2EF2
:1013E000AA1BBB1BFD010DC0AA1FBB1FEE1FFF1FC9
:1013F000A217B307E407F50720F0A21BB30BE40B19
:10140000F50B661F771F881F991F1A9469F760955F
:101410007095809590959B01AC01BD01CF01089519
:1014200097FB092E05260ED057FD04D0D7DF0AD032
:10143000001C38F450954095309521953F4F4F4F03
:101440005F4F0895F6F790958095709561957F4F61
:101450008F4F9F4F0895AA1BBB1B51E107C0AA1FC6
:10146000BB1FA617B70710F0A61BB70B881F991F45
:101470005A95A9F780959095BC01CD010895F894EF
:02148000FFCF9C
:1014820044656275672053746172746564002C0050
:10149200CE049C044E024E023A02E600C800D2007C
:0214A200140034
:00000001FF
