:100000000C9434000C9451000C9451000C94510049
:100010000C9456060C9451000C9451000C94510011
:100020000C9451000C9451000C9451000C9451000C
:100030000C9451000C9451000C9451000C945100FC
:100040000C9495060C9451000C9451000C945100A2
:100050000C9451000C9451000C9451000C945100DC
:100060000C9451000C94510011241FBECFEFD8E026
:10007000DEBFCDBF11E0A0E0B1E0EAE7FFE002C0E3
:1000800005900D92A232B107D9F711E0A2E2B1E0DA
:1000900001C01D92A738B107E1F70E9453000C94EC
:1000A000BB070C940000CF93DF93549A5C980E9496
:1000B0000E030E944F0680E091E00E9412050E940C
:1000C0003D02C0E7D7E10E94F002AA2797FDA09564
:1000D000BA2FBC01CD010E9499050E94D202AA2725
:1000E00097FDA095BA2FBC01CD010E9499050E94F1
:1000F000B402AA2797FDA095BA2FBC01CD010E949A
:1001000099050E949602AA2797FDA095BA2FBC01D7
:10011000CD010E9499050E947802AA2797FDA0951B
:10012000BA2FBC01CD010E9499050E945A02AA274C
:1001300097FDA095BA2FBC01CD010E948F05CE017D
:100140000197F1F7C0CF1092220110922301089578
:1001500080E58A95F1F7089580EA8A95F1F7089588
:1001600088E08A95F1F70895813011F43C9A08955A
:100170003C980895813011F4449A08954498089564
:10018000813019F4449A3C98089544983C9A089513
:1001900086B190E024E0969587952A95E1F78170E5
:1001A0000895813011F43D9A08953D980895813065
:1001B00011F4459A089545980895813019F4459AA7
:1001C0003D98089545983D9A089586B190E035E0B0
:1001D000969587953A95E1F7817008953C9880E06F
:1001E0000E94C00008953D9880E00E94DD000895BF
:1001F0003C9A3D9881E00E94C00081E00E94DD00B1
:1002000008951F9381E00E94C00081E00E94DD00FC
:1002100010E5812F8A95F1F780E00E94DD00812FA3
:100220008A95F1F780E00E94C0001A95F1F71F91BE
:1002300008951F9380E00E94C00080E00E94DD00CE
:1002400010E5812F8A95F1F781E00E94C000812F8F
:100250008A95F1F781E00E94DD001A95F1F71F9170
:100260000895EF92FF920F931F93082F10E050E52F
:10027000F52E48E0E42E07FF02C081E001C080E0D7
:100280000E94DD008F2D8A95F1F781E00E94C00069
:100290008F2D8A95F1F780E00E94C0008E2D8A95FF
:1002A000F1F71F5F183011F0000FE5CF1F910F918C
:1002B000FF90EF900895FF920F931F9381E00E94AB
:1002C000DD0010E000E060E5F62E110F8F2D8A951D
:1002D000F1F781E00E94C000359911608F2D8A9559
:1002E000F1F780E00E94C0000F5F083071F780E5F1
:1002F0008A95F1F781E00E94C000812F1F910F9134
:10030000FF9008951F9380E00E94DD0010E5812F8B
:100310008A95F1F781E00E94C0001A95F1F780E01C
:100320000E94C0001F9108951F9381E00E94DD008C
:1003300010E5812F8A95F1F781E00E94C0001A959F
:10034000F1F780E00E94C0001F9108950F931F9362
:1003500081E00E94DD0000E5802F8A95F1F781E0C1
:100360000E94C00016B10A95F1F780E00E94C0001B
:1003700088E08A95F1F71295169517701095812FE0
:1003800081701F910F9108951F93182F0E940101F2
:10039000812F0E9431010E94A601182F0E9419018D
:1003A000812F1F9108951F9310E0812F0E94C40197
:1003B000813011F4812F03C01F5F1F3FB1F71F91E0
:1003C0000895DF92EF92FF920F931F93182F0E94D0
:1003D0000101809122010E9431010E94A601E82EB4
:1003E000812F0E9431010E94A601F82E0E9419015E
:1003F0000E940101809123010E9431010E94A60107
:10040000182F0E945B01D82E0E94A601082F0E947F
:100410001901FF0C110F110F1F291E29000F000FCA
:10042000000F012B073011F08FEF01C08D2D1F91B0
:100430000F91FF90EF90DF9008950F931F93182F67
:10044000062F0E940101809122010E9431010E9429
:10045000A601812F0E9431010E94A601802F0E94D7
:1004600031010E94A6010E9419011F910F91089568
:100470008BE660E40E941D0208958BE660E00E9416
:100480001D0208950F931F9381E40E94E101182F2C
:1004900000E082E40E94E10190E0802B912B64E572
:1004A00071E00E9457079B012C5D3F4FC9011F91CE
:1004B0000F910895EF92FF920F931F9387E40E948C
:1004C000E101F82EEE2488E40E94E10190E0E82AA0
:1004D000F92A0027F7FC0095102F85E0B801A70145
:1004E0000E94D006CB011F910F91FF90EF900895CD
:1004F000EF92FF920F931F9385E40E94E101F82E83
:10050000EE2486E40E94E10190E0E82AF92A00271F
:10051000F7FC0095102F84E0B801A7010E94D006D7
:10052000CB011F910F91FF90EF900895EF92FF92F2
:100530000F931F9383E40E94E101F82EEE2484E4DC
:100540000E94E10190E0E82AF92A0027F7FC0095D3
:10055000102F83E0B801A7010E94D006CB011F91A4
:100560000F91FF90EF900895EF92FF920F931F93DA
:100570008FE30E94E101F82EEE2480E40E94E10165
:1005800090E0E82AF92A0027F7FC0095102F82E076
:10059000B801A7010E94D006CB011F910F91FF90D7
:1005A000EF900895EF92FF920F931F938DE30E94B7
:1005B000E101F82EEE248EE30E94E10190E0E82AAA
:1005C000F92A0027F7FC0095102F81E0B801A70158
:1005D0000E94D006CB011F910F91FF90EF900895DC
:1005E000EF92FF920F931F938BE30E94E101F82E8D
:1005F000EE248CE30E94E10190E0E82AF92A00272A
:10060000F7FC0095102F80E0B801A7010E94D006EA
:10061000CB011F910F91FF90EF900895109222014E
:10062000109223010E94F8000E94D30180932201BE
:100630008F5F809323010E94350780E06AE00E946B
:10064000B60681E06AE00E94B60682E06AE00E9497
:10065000B60683E06AE00E94B60684E06AE00E9483
:10066000B60685E06AE00E94B6060895109224015D
:100670001092250181E08093260180E090E0FC014A
:10068000EC5DFE4F1382019680329105C1F7109206
:100690004701E8E4F1E0119281E0E035F807D9F78D
:1006A0001082089514BC15BC10926E008FEF85BBAC
:1006B000E8E6F0E0808182608083ECE6F0E0808113
:1006C00088608083D99A789408958FEF85BBEEE691
:1006D000F0E0108288EC86BD84E085BD81E085BBBA
:1006E0008083089510926E0015BC16BC0895509A30
:1006F000589A3B98439A0895589A0895589808959F
:10070000813011F4589A08955898089586B190E070
:1007100023E0969587952A95E1F7817008959C01CD
:1007200016BC81E085BD86B58233E8F316BC86B57C
:1007300090E082179307D8F315BC089580911C01AF
:1007400090911D010E948F03089580911E01909148
:100750001F010E948F030895809120019091210133
:100760000E948F030895DF92EF92FF920F931F93E1
:10077000DF93CF93CDB7DEB72A970FB6F894DEBFDD
:100780000FBECDBFFE0131969AE0DF011D929A9512
:10079000E9F791E09A87FE01329620E030E0482F99
:1007A00050E061E0CA01022E02C0959587950A9437
:1007B000E2F780FF02C0608301C010822F5F3F4FCD
:1007C00031962830310571F7DFB6F8948E010F5F4E
:1007D0001F4F3BE0E32EF12CEC0EFD1EF801808153
:1007E000813011F4589A01C058980E949E030F5FFF
:1007F0001F4F0E151F0591F7DFBE2A960FB6F8940E
:10080000DEBF0FBECDBFCF91DF911F910F91FF9043
:10081000EF90DF900895FF920F931F93339B21C0B9
:1008200082E017C00E94A50333990068173009F0D1
:1008300006951F5F1830B1F70E94A50386B1F3FC3F
:1008400007C083FF05C0009325011092240103C057
:1008500081E080932401809125011F910F91FF90E9
:1008600008950E94AC03F6B000E010E0DBCF809169
:10087000250108951092250108958093250108957A
:10088000BF92CF92DF92EF92FF920F931F93CF937D
:10089000DF937B018C018FEFE816F1040105110550
:1008A00009F030F4C8E0D0E062E0C62ED12C14C0CC
:1008B00080E0E81680E0F80681E0080780E018078D
:1008C00030F0C0E2D0E058E0C52ED12C05C0C0E128
:1008D000D0E044E0C42ED12C80E30E94B30388E72B
:1008E0000E94B303BB2417C02497D801C7010C2E64
:1008F00004C0B695A795979587950A94D2F790E08E
:100900008F7090708A30910510F0C79601C0C09624
:100910000E94B303B3948B2D90E08C159D0520F3BA
:10092000DF91CF911F910F91FF90EF90DF90CF90CB
:10093000BF900895AF92BF92CF92DF92EF92FF9255
:100940000F931F93CF93DF937B018C016F3F710552
:100950008105910509F018F4F7E0DF2E0DC0603035
:1009600030E0730731E0830730E0930718F0EFE1E0
:10097000DE2E02C07FE0D72E80E30E94B30382E622
:100980000E94B303C0E0D0E0CD2CDD2456010894D2
:10099000A11CB11CC6018C1B9D0BA801970104C0B2
:1009A00056954795379527958A95D2F7DA01C9016B
:1009B00081709070892B11F081E301C080E30E9467
:1009C000B3032196CA15DB0529F7DF91CF911F915B
:1009D0000F91FF90EF90DF90CF90BF90AF90089570
:1009E0008DE00E94B3038AE00E94B303089580E281
:1009F0000E94B30308958CE20E94B30308951F93ED
:100A0000CF93DF93EC0110E003C00E94B3031F5F9C
:100A1000FE01E10FF11D80818823B9F7DF91CF91AD
:100A20001F9108950E94FF040E94F00408950E94FF
:100A3000FF040E94F70408950E94FF040E94FB0433
:100A40000895BF92CF92DF92EF92FF920F931F9380
:100A50006B017C01611571058105910531F41092DE
:100A6000480181E08093500123C0BB240B2D10E08E
:100A70000C5D1E4FC701B6012AE030E040E050E0B7
:100A80000E946A07F80164A3C701B6012AE030E0BA
:100A900040E050E00E946A07C901DA016C017D0163
:100AA000B394C114D104E104F10401F7B0925001F0
:100AB0001F910F91FF90EF90DF90CF90BF9008951E
:100AC0001F931091500109C01150E12FF0E0EC5D2F
:100AD000FE4F84A1805D0E94B3031123A9F71F91EB
:100AE0000895EF92FF920F931F937B018C0197FF64
:100AF0000BC08DE20E94B30310950095F094E09432
:100B0000E11CF11C011D111DC801B7010E94210546
:100B10000E9460051F910F91FF90EF9008950E9431
:100B200071050E94F00408950E9471050E94F70467
:100B300008950E9471058EE091E00E94FF040895DF
:100B40000E9440040E94F00408950E9440040E9404
:100B5000F70408950E9440048EE091E00E94FF0493
:100B60000895EF92FF920F931F937A018B010E94D9
:100B7000FF040E94F704C801B7010E948F051F916E
:100B80000F91FF90EF900895EF92FF920F931F93B4
:100B90007A018B010E94FF040E94F704C801B7018B
:100BA0000E9494051F910F91FF90EF900895EF928E
:100BB000FF920F931F937A018B010E94FF040E9402
:100BC000F704C801B7010E9499051F910F91FF908A
:100BD000EF900895EF92FF920F931F937A018B018C
:100BE0000E94FF040E94F704C801B7010E94A005FB
:100BF0001F910F91FF90EF900895EF92FF920F9346
:100C00001F937A018B010E94FF040E94F704C80120
:100C1000B7010E94A5051F910F91FF90EF900895D5
:100C2000EF92FF920F931F937A018B010E94FF04B2
:100C30000E94F704C801B7010E94AA051F910F91F5
:100C4000FF90EF900895E4E2F1E0E80FF11D838159
:100C5000089580914701089580E090E0FC01EC5DEB
:100C6000FE4F1382019680329105C1F71092470121
:100C7000089580912601089580912601882311F01E
:100C800090E008C08091470190E0882309F491E04A
:100C900081E09827892F08958091470108950E9447
:100CA00036030E9452030E94770308951F920F9209
:100CB0000FB60F9211242F933F934F935F936F932F
:100CC0007F938F939F93AF93BF93EF93FF9381E0B5
:100CD000809326010E940B04982F80912401882381
:100CE00099F4E0914701F0E0EC5DFE4F9383809131
:100CF00047018F5F8093470180914701813210F057
:100D0000109247010E946503FF91EF91BF91AF914F
:100D10009F918F917F916F915F914F913F912F9113
:100D20000F900FBE0F901F9018951F920F920FB645
:100D30000F92112410926E0015BC16BC1092260161
:100D40000F900FBE0F901F901895E1E5F1E0108213
:100D500011821282138214821582168217821086E3
:100D6000399681E0E738F80791F7089590E0FC01A3
:100D700023E0EE0FFF1F2A95E1F7E80FF91FEF5A66
:100D8000FE4F6083089590E0FC0133E0EE0FFF1FFB
:100D90003A95E1F7E80FF91FEF5AFE4F8081089569
:100DA0002F923F924F925F926F927F928F929F927B
:100DB000AF92BF92CF92DF92EF92FF920F931F9369
:100DC0001A012B0190E06C0153E0CC0CDD1C5A950C
:100DD000E1F7C80ED91E81E591E0C80ED91EF601D3
:100DE0002081622E77248824992464E670E0621BB7
:100DF0007109882777FD8095982F45E0A42EB12CA6
:100E0000AC0CBD1C25813681478150850E94380776
:100E10007B018C01C201B101A40193010E9438073A
:100E2000E60EF71E081F191FC801B70124E630E0BF
:100E300040E050E00E948C07CA01F6012583F501CD
:100E4000318342839383B9011F910F91FF90EF90FB
:100E5000DF90CF90BF90AF909F908F907F906F90DA
:100E60005F904F903F902F9008950E94A50608959F
:100E7000629FD001739FF001829FE00DF11D649F7E
:100E8000E00DF11D929FF00D839FF00D749FF00D0A
:100E9000659FF00D9927729FB00DE11DF91F639FAB
:100EA000B00DE11DF91FBD01CF011124089597FB7D
:100EB000092E07260AD077FD04D049D006D000209D
:100EC0001AF4709561957F4F0895F6F79095819586
:100ED0009F4F0895A1E21A2EAA1BBB1BFD010DC056
:100EE000AA1FBB1FEE1FFF1FA217B307E407F507DA
:100EF00020F0A21BB30BE40BF50B661F771F881FB6
:100F0000991F1A9469F760957095809590959B014B
:100F1000AC01BD01CF01089597FB092E05260ED027
:100F200057FD04D0D7DF0AD0001C38F45095409507
:100F3000309521953F4F4F4F5F4F0895F6F79095AD
:100F40008095709561957F4F8F4F9F4F0895AA1B95
:100F5000BB1B51E107C0AA1FBB1FA617B70710F0A4
:100F6000A61BB70B881F991F5A95A9F780959095D6
:0A0F7000BC01CD010895F894FFCFF5
:100F7A0044656275672053746172746564002C005D
:100F8A00CE049C044E024E023A02E600C800D20089
:020F9A00140041
:00000001FF
