:100000000C944B000C9468000C9468000C946800ED
:100010000C9452060C9468000C9468000C946800D0
:100020000C9468000C9468000C9468000C946800B0
:100030000C9468000C9468000C9468000C946800A0
:100040000C9491060C9468000C9468000C94680061
:100050000C9468000C9468000C9468000C94680080
:100060000C9468000C946800084AD73B3BCE016EA4
:1000700084BCBFFDC12F3D6C74319ABD56833DDAFF
:100080003D00C77F11BED9E4BB4C3E916BAAAABE0E
:10009000000000803F0011241FBECFEFD8E0DEBF7C
:1000A000CDBF11E0A0E0B1E0E4E2FCE102C00590C8
:1000B0000D92A232B107D9F711E0A2E2B1E001C07E
:1000C0001D92A73AB107E1F70E946A000C94100E46
:1000D0000C9400006F927F928F929F92AF92BF928A
:1000E000CF92DF92EF92FF920F931F93CF93DF9304
:1000F000549A5C980E942F0B0E944B0680E091E07E
:100100000E94C4040E94C30AAA24BB246501EE24F1
:10011000FF248701C8E9DAE30E948B0A0E94370BAB
:10012000962E872E782E692E0E94320B0E94F007A1
:10013000892B09F051C00E94BE07AA2797FDA09500
:10014000BA2FBC01CD01292D382D472D562D0E94E7
:100150008D0D20EA36E841E050E00E94E10DA20E4C
:10016000B31EC41ED51E0E94C307AA2797FDA095E3
:10017000BA2FBC01CD01292D382D472D562D0E94B7
:100180008D0D20EA36E841E050E00E94E10DE20EDC
:10019000F31E041F151F0E94C8070E944208AA27C9
:1001A00097FDA095BA2FBC01CD010E944B050E947E
:1001B000FA07AA2797FDA095BA2FBC01CD010E948E
:1001C0004B05C601B5010E944B05C801B7010E944D
:1001D0004B050E94A20402C00E949A0ACE01019718
:1001E000F1F79ACF109222011092230181E08093BF
:1001F00024011092250110922701109226010895E2
:100200001092250108951092270110922601089559
:1002100010922501109227011092260108958091D5
:10022000250108958091260190912701089580E588
:100230008A95F1F7089580EA8A95F1F7089588E0A4
:100240008A95F1F70895813011F43D9A08953D980B
:100250000895813011F4459A0895459808958130A4
:1002600019F4459A3D98089545983D9A089586B1A8
:1002700090E025E0969587952A95E1F7817008959D
:10028000813011F43C9A08953C980895813011F41E
:10029000449A089544980895813019F4449A3C98FA
:1002A000089544983C9A089586B190E034E096957C
:1002B00087953A95E1F7817008953D9880E00E9416
:1002C0002F0108953C9880E00E944C0108953D9ACA
:1002D0003C9881E00E942F0181E00E944C0108952A
:1002E0001F9381E00E942F0181E00E944C0110E5E4
:1002F000812F8A95F1F780E00E944C01812F8A9529
:10030000F1F780E00E942F011A95F1F71F910895EF
:100310001F9380E00E942F0180E00E944C0110E5B5
:10032000812F8A95F1F781E00E942F01812F8A9514
:10033000F1F781E00E944C011A95F1F71F910895A1
:10034000EF92FF920F931F93082F10E050E5F52EC8
:1003500048E0E42E07FF02C081E001C080E00E9477
:100360004C018F2D8A95F1F781E00E942F018F2D8E
:100370008A95F1F780E00E942F018E2D8A95F1F782
:100380001F5F183011F0000FE5CF1F910F91FF9004
:10039000EF900895FF920F931F9381E00E944C010C
:1003A00010E000E060E5F62E110F8F2D8A95F1F731
:1003B00081E00E942F01349911608F2D8A95F1F709
:1003C00080E00E942F010F5F083071F780E58A9569
:1003D000F1F781E00E942F01812F1F910F91FF9073
:1003E00008951F9380E00E944C0110E5812F8A95AB
:1003F000F1F781E00E942F011A95F1F780E00E9449
:100400002F011F9108951F9381E00E944C0110E578
:10041000812F8A95F1F781E00E942F011A95F1F75B
:1004200080E00E942F011F9108950F931F9381E098
:100430000E944C0100E5802F8A95F1F781E00E942F
:100440002F0116B10A95F1F780E00E942F0188E094
:100450008A95F1F712951F701095812F81701F9169
:100460000F9108951F93182F0E947001812F0E94F1
:10047000A0010E941502182F0E948801812F1F9150
:1004800008951F9310E0812F0E943202813011F4F1
:10049000812F03C01F5F1F3FB1F71F910895DF92A7
:1004A000EF92FF920F931F93182F0E94700180917B
:1004B00022010E94A0010E941502E82E812F0E94B5
:1004C000A0010E941502F82E0E9488010E9470016E
:1004D000809123010E94A0010E941502182F0E9402
:1004E000CA01D82E0E941502082F0E948801FF0C15
:1004F000110F110F1F291E29000F000F000F012BD4
:10050000073021F4109225018D2D0DC081E08093DC
:100510002501809126019091270101969093270152
:10052000809326018FEF1F910F91FF90EF90DF9046
:100530000895EF92FF920F931F93182FF62E0E94AB
:100540007001809122010E94A0010E941502E82EF4
:10055000812F0E94A0010E941502082F8F2D0E945A
:10056000A0010E941502182F0E948801000F110F90
:10057000110F102B1E29173019F4109225010CC0F1
:1005800082E08093250180912601909127010196B8
:1005900090932701809326011F910F91FF90EF9078
:1005A0000895109222011092230181E0809324018A
:1005B0001092250110922701109226010E946701D6
:1005C0000E944102809322018F5F8093230108954E
:1005D000109228011092290181E080932A0180E085
:1005E00090E0FC01E85DFE4F138201968032910598
:1005F000C1F710924B01ECE4F1E0119281E0E43597
:10060000F807D9F71082089514BC15BC10926E003B
:100610008FEF85BBE8E6F0E0808182608083ECE6C6
:10062000F0E0808180648083D99A789408958FEF78
:1006300085BBEEE6F0E0108288EC86BD84E085BDE7
:1006400081E085BB8083089510926E0015BC16BCB6
:100650000895559A5D9A3E98469A08955D9A089530
:100660005D980895813011F45D9A08955D9808951C
:1006700086B190E026E0969587952A95E1F78170FE
:1006800008959C0116BC81E085BD86B58233E8F3F0
:1006900016BC86B590E082179307D8F315BC089571
:1006A00080911C0190911D010E9441030895809149
:1006B0001E0190911F010E94410308958091200125
:1006C000909121010E9441030895DF92EF92FF92E1
:1006D0000F931F93DF93CF93CDB7DEB72A970FB653
:1006E000F894DEBF0FBECDBFFE0131969AE0DF0168
:1006F0001D929A95E9F791E09A87FE01329620E0E3
:1007000030E0482F50E061E0CA01022E02C095950A
:1007100087950A94E2F780FF02C0608301C01082CF
:100720002F5F3F4F31962830310571F7DFB6F894CF
:100730008E010F5F1F4F3BE0E32EF12CEC0EFD1EF0
:10074000F8018081813011F45D9A01C05D980E94AA
:1007500050030F5F1F4F0E151F0591F7DFBE2A963E
:100760000FB6F894DEBF0FBECDBFCF91DF911F91C2
:100770000F91FF90EF90DF900895FF920F931F93DA
:10078000369B21C082E017C00E945703369900684B
:10079000173009F006951F5F1830B1F70E94570314
:1007A00086B1F6FC07C086FF05C0009329011092B0
:1007B000280103C081E080932801809129011F91C5
:1007C0000F91FF9008950E945E03F6B000E010E0E4
:1007D000DBCF80912901089510922901089580931B
:1007E00029010895BF92CF92DF92EF92FF920F936B
:1007F0001F93CF93DF937B018C018FEFE816F104F9
:100800000105110509F030F4C8E0D0E062E0C62E21
:10081000D12C14C080E0E81680E0F80681E00807DB
:1008200080E0180730F0C0E2D0E058E0C52ED12CAF
:1008300005C0C0E1D0E044E0C42ED12C80E30E948A
:10084000650388E70E946503BB2417C02497D8017D
:10085000C7010C2E04C0B695A795979587950A9465
:10086000D2F790E08F7090708A30910510F0C796A3
:1008700001C0C0960E946503B3948B2D90E08C1547
:100880009D0520F3DF91CF911F910F91FF90EF9085
:10089000DF90CF90BF900895AF92BF92CF92DF923A
:1008A000EF92FF920F931F93CF93DF937B018C0105
:1008B0006F3F71058105910509F018F4F7E0DF2E0F
:1008C0000DC0603030E0730731E0830730E09307FC
:1008D00018F0EFE1DE2E02C07FE0D72E80E30E9409
:1008E000650382E60E946503C0E0D0E0CD2CDD24E4
:1008F00056010894A11CB11CC6018C1B9D0BA801BC
:10090000970104C056954795379527958A95D2F754
:10091000DA01C90181709070892B11F081E301C067
:1009200080E30E9465032196CA15DB0529F7DF9154
:10093000CF911F910F91FF90EF90DF90CF90BF90DC
:10094000AF9008958DE00E9465038AE00E946503E0
:10095000089580E20E94650308958CE20E94650379
:1009600008951F93CF93DF93EC0110E003C00E9422
:1009700065031F5FFE01E10FF11D80818823B9F738
:10098000DF91CF911F9108950E94B1040E94A204AB
:1009900008950E94B1040E94A90408950E94B10420
:1009A0000E94AD040895BF92CF92DF92EF92FF9222
:1009B0000F931F936B017C016115710581059105F2
:1009C00031F410924C0181E08093540123C0BB2488
:1009D0000B2D10E0085D1E4FC701B6012AE030E084
:1009E00040E050E00E94BF0DF80164A3C701B601CA
:1009F0002AE030E040E050E00E94BF0DC901DA017A
:100A00006C017D01B394C114D104E104F10401F738
:100A1000B09254011F910F91FF90EF90DF90CF9013
:100A2000BF9008951F931091540109C01150E12FF8
:100A3000F0E0E85DFE4F84A1805D0E946503112314
:100A4000A9F71F910895EF92FF920F931F937B01D7
:100A50008C0197FF0BC08DE20E94650310950095F5
:100A6000F094E094E11CF11C011D111DC801B701B7
:100A70000E94D3040E9412051F910F91FF90EF90E6
:100A800008950E9423050E94A20408950E94230550
:100A90000E94A90408950E9423058EE091E00E941F
:100AA000B10408950E94F2030E94A20408950E94D6
:100AB000F2030E94A90408950E94F2038EE091E0DF
:100AC0000E94B10408950E944C040E94A20408955B
:100AD0000E944C040E94A90408950E944C048EE0D8
:100AE00091E00E94B1040895EF92FF920F931F933B
:100AF0007A018B010E94B1040E94A904C801B701C8
:100B00000E9441051F910F91FF90EF900895EF9281
:100B1000FF920F931F937A018B010E94B1040E94F0
:100B2000A904C801B7010E9446051F910F91FF90CB
:100B3000EF900895EF92FF920F931F937A018B012C
:100B40000E94B1040E94A904C801B7010E944B058C
:100B50001F910F91FF90EF900895EF92FF920F93E6
:100B60001F937A018B010E94B1040E94A904C8015D
:100B7000B7010E9452051F910F91FF90EF900895C9
:100B8000EF92FF920F931F937A018B010E94B104A1
:100B90000E94A904C801B7010E9457051F910F9137
:100BA000FF90EF900895EF92FF920F931F937A01B9
:100BB0008B010E94B1040E94A904C801B7010E94E0
:100BC0005C051F910F91FF90EF900895EF92FF92B7
:100BD0000F931F937A018B010E94B1040E94A90414
:100BE000C801B7010E9463051F910F91FF90EF901C
:100BF0000895EF92FF920F931F937A018B010E9449
:100C0000B1040E94A904C801B7010E9468051F91A0
:100C10000F91FF90EF900895EF92FF920F931F9323
:100C20007A018B010E94B1040E94A904C801B70196
:100C30000E946D051F910F91FF90EF900895E8E2DB
:100C4000F1E0E80FF11D8381089580914B01089533
:100C500080E090E0FC01E85DFE4F13820196803257
:100C60009105C1F710924B01089580912A010895D2
:100C700080912A01882311F090E008C080914B01F7
:100C800090E0882309F491E081E09827892F089566
:100C900080914B0108950E94E8020E9404030E9483
:100CA000290308951F920F920FB60F9211242F93CC
:100CB0003F934F935F936F937F938F939F93AF93E4
:100CC000BF93EF93FF9381E080932A010E94BD03BD
:100CD000982F80912801882399F4E0914B01F0E04E
:100CE000E85DFE4F938380914B018F5F80934B01B2
:100CF00080914B01813210F010924B010E9417033A
:100D0000FF91EF91BF91AF919F918F917F916F91E3
:100D10005F914F913F912F910F900FBE0F901F90B9
:100D200018951F920F920FB60F92112410926E0019
:100D300015BC16BC10922A010F900FBE0F901F9089
:100D40001895E5E5F1E01082118212821382148277
:100D50001582168217821086399681E0EB38F807E3
:100D600091F7089590E0FC0123E0EE0FFF1F2A9514
:100D7000E1F7E80FF91FEB5AFE4F6083089590E00A
:100D8000FC0133E0EE0FFF1F3A95E1F7E80FF91F82
:100D9000EB5AFE4F808108952F923F924F925F92BF
:100DA0006F927F928F929F92AF92BF92CF92DF927B
:100DB000EF92FF920F931F931A012B0190E06C01A9
:100DC00053E0CC0CDD1C5A95E1F7C80ED91E85E521
:100DD00091E0C80ED91EF6012081622E7724882466
:100DE000992464E670E0621B7109882777FD80957D
:100DF000982F45E0A42EB12CAC0CBD1C258136816A
:100E0000478150850E948D0D7B018C01C201B1018B
:100E1000A40193010E948D0DE60EF71E081F191FF5
:100E2000C801B70124E630E040E050E00E94E10D47
:100E3000CA01F6012583F501318342839383B90109
:100E40001F910F91FF90EF90DF90CF90BF90AF90E8
:100E50009F908F907F906F905F904F903F902F90DA
:100E600008950E94A1060895A0E0B0E0BC01CD0164
:100E700021E433E040E050E00E948D0D6051764B5C
:100E80008D4F9F4F24E630E040E050E00E94BF0DC0
:100E9000309389002093880008959B01AC01219A2A
:100EA00060E673EE86E190E00E94BF0D2150304075
:100EB00030938700209386008CED95E09093890015
:100EC0008093880082E8809380008AE1809381008B
:100ED00080E090E00E94340788EE93E02CE231E05D
:100EE000F9013197F1F70197D9F7089510928C0124
:100EF00010928B0110928E0110928D011092900130
:100F000010928F011092920110929101109294010F
:100F100010929301109296011092950110929801EF
:100F20001092970110929A011092990110929C01CF
:100F300010929B0110929E0110929D011092A001AF
:100F400010929F011092A2011092A1011092A4018F
:100F50001092A3011092A6011092A501089580910C
:100F60008B0190918C01089580918D0190918E015B
:100F7000089580918F019091900108958091910141
:100F80009091920108958091930190919401089518
:100F9000809195019091960108958091970190918B
:100FA000980108958091990190919A0108958091F6
:100FB0009B0190919C01089580919D0190919E01CB
:100FC000089580919F019091A00108958091A101C1
:100FD0009091A20108958091A3019091A401089598
:100FE0008091A5019091A60108951092A6011092FA
:100FF000A5010895EF92FF920F931F938091A50191
:101000009091A601892B91F560918D0170918E01CF
:10101000882777FD8095982F0E940F0C7B018C010B
:1010200060918F0170919001882777FD8095982FAE
:101030000E940F0C9B01AC01C801B7010E94740B08
:101040000E944C0B20E030E040E251E40E94C70CCB
:1010500023E333E345E652E40E94C70C0E94DC0B15
:101060009B017093A00160939F0106C01092A001A4
:1010700010929F0120E030E0C9011F910F91FF9075
:10108000EF900895EF92FF920F931F938091A50127
:101090009091A601892B91F560918B0170918C0143
:1010A000882777FD8095982F0E940F0C7B018C017B
:1010B00060918F0170919001882777FD8095982F1E
:1010C0000E940F0C9B01AC01C801B7010E94740B78
:1010D0000E944C0B20E030E040E251E40E94C70C3B
:1010E00023E333E345E652E40E94C70C0E94DC0B85
:1010F0009B0170939E0160939D0106C010929E011A
:1011000010929D0120E030E0C9011F910F91FF90E6
:10111000EF9008958BE60E944F020895FF920F937F
:101120001F9381E40E944F02F82E0E940F01182F96
:1011300082E40E944F02082F0E940F01112381F4C4
:10114000882371F49F2D80E0202F30E0822B932B99
:1011500064E571E00E94AC0D9B012C5D3F4F08C01F
:1011600081E290E09093A6018093A50120E030E019
:101170003093A4012093A301C9011F910F91FF9007
:101180000895AF92BF92CF92DF92EF92FF920F93AA
:101190001F9387E40E944F02D82E0E940F01B82EA1
:1011A000FD2CEE2488E40E944F02C82E0E940F01FD
:1011B000A82EDD24EC28FD280027F7FC0095102F31
:1011C00085E0B801A7010E94CC0620919B013091D7
:1011D0009C01BB2031F4AA2021F4CB01821B930B8C
:1011E00008C083E190E09093A6018093A50180E080
:1011F00090E063E870E00E94AC0DCB016093950134
:10120000909396011F910F91FF90EF90DF90CF90F8
:10121000BF90AF900895AF92BF92CF92DF92EF92BE
:10122000FF920F931F9385E40E944F02D82E0E94D5
:101230000F01B82EFD2CEE2486E40E944F02C82E2A
:101240000E940F01A82EDD24EC28FD280027F7FCC2
:101250000095102F84E0B801A7010E94CC062091D0
:10126000990130919A01BB2031F4AA2021F4CB01DD
:10127000821B930B08C082E190E09093A6018093BB
:10128000A50180E090E063E870E00E94AC0DCB0126
:1012900060939301909394011F910F91FF90EF90B1
:1012A000DF90CF90BF90AF900895AF92BF92CF9252
:1012B000DF92EF92FF920F931F9383E40E944F02FD
:1012C000D82E0E940F01B82EFD2CEE2484E40E943B
:1012D0004F02C82E0E940F01A82EDD24EC28FD2805
:1012E0000027F7FC0095102F83E0B801A7010E94AA
:1012F000CC062091970130919801BB2031F4AA20AF
:1013000021F4CB01821B930B08C081E190E0909304
:10131000A6018093A50180E090E063E870E00E9460
:10132000AC0DCB0160939101909392011F910F91AD
:10133000FF90EF90DF90CF90BF90AF900895809195
:10134000A5019091A601892B11F40E945509809165
:10135000A5019091A601892B11F40E940B0980919F
:10136000A5019091A601892B11F40E94C10808954E
:10137000AF92BF92CF92DF92EF92FF920F931F93A3
:101380008FE30E944F02D82E0E940F01B82EFD2C31
:10139000EE2480E40E944F02C82E0E940F01A82E66
:1013A000DD24EC28FD280027F7FC0095102F82E0B3
:1013B000B801A7010E94CC06BB2011F4AA2041F07D
:1013C00083E090E09093A6018093A50160E070E037
:1013D0007093900160938F01CB011F910F91FF904B
:1013E000EF90DF90CF90BF90AF900895AF92BF92F3
:1013F000CF92DF92EF92FF920F931F938DE30E94A3
:101400004F02D82E0E940F01B82EFD2CEE248EE341
:101410000E944F02C82E0E940F01A82EDD24EC2846
:10142000FD280027F7FC0095102F81E0B801A701E7
:101430000E94CC06BB2011F4AA2041F082E090E08B
:101440009093A6018093A50160E070E070938E01F7
:1014500060938D01CB011F910F91FF90EF90DF9072
:10146000CF90BF90AF900895AF92BF92CF92DF928E
:10147000EF92FF920F931F938BE30E944F02D82E9F
:101480000E940F01B82EFD2CEE248CE30E944F0227
:10149000C82E0E940F01A82EDD24EC28FD2800276D
:1014A000F7FC0095102F80E0B801A7010E94CC0640
:1014B000BB2011F4AA2041F081E090E09093A601B6
:1014C0008093A50160E070E070938C0160938B01C4
:1014D000CB011F910F91FF90EF90DF90CF90BF90C5
:1014E000AF9008958091A5019091A601892B11F4E8
:1014F0000E94340A8091A5019091A601892B11F4D4
:101500000E94F6098091A5019091A601892B11F402
:101510000E94B80908950E94720A0E949F090895C6
:101520008BE60E944F0286FF04C08BE660E00E94BB
:1015300099020895FF920F931F930E940801F09063
:10154000A5011092A6011092A50100E717E1C801BC
:101550000197F1F70E948801C8010197F1F70E94F5
:10156000900AC8010197F1F70E948B0A8BE60E944E
:101570004F02882321F0F092A5011092A6011F913D
:101580000F91FF9008951F930E94D10280E395E789
:101590000197F1F70E9476070E94900A0E94310796
:1015A00080E062E30E94B20681E062E30E94B2063C
:1015B00082E062E30E94B20683E062E30E94B20628
:1015C00084E062E30E94B20685E062E30E94B20614
:1015D00088EE93E02CE231E0F9013197F1F70197C1
:1015E000D9F710E00E948B0A1F5F1032D9F7809163
:1015F000910190919201909398018093970180912D
:1016000093019091940190939A0180939901809114
:1016100095019091960190939C0180939B011F915D
:1016200008958BE60E944F0286FD04C08BE660E4BD
:101630000E9499020895089510928000A1E8B0E0F8
:101640001C9210928200E4E8F0E011821082109265
:101650006F0016BA83E08C931182108208950E9465
:101660001C0B0895109285001092840008956091DB
:1016700084007091850080E090E025E132E040E058
:1016800050E00E948D0D24E630E040E050E00E94E2
:10169000BF0DCA01B9010895DF93DD27B92FBF77C8
:1016A00040E85FE31616170648075B0710F4D92FCA
:1016B00067D19F938F937F936F93CCD1E8E6F0E04F
:1016C000F2D024D12F913F914F915F916CD1DD23C6
:1016D00049F09058A2EA2AED3FE049EC5FE3D07868
:1016E0005D27C8D1DF9112C10CD010C108D140F0E4
:1016F000FFD030F021F45F3F19F0CCC051113AC156
:10170000CFC015D198F39923C9F35523B1F3951B95
:10171000550BBB27AA2762177307840738F09F5F12
:101720005F4F220F331F441FAA1FA9F333D00E2E81
:101730003AF0E0E830D091505040E695001CCAF7EE
:1017400029D0FE2F27D0660F771F881FBB1F2617B3
:1017500037074807AB07B0E809F0BB0B802DBF0186
:10176000FF2793585F4F2AF09E3F510568F092C0C3
:1017700001C15F3FECF3983EDCF386957795679562
:10178000B795F7959F5FC9F7880F911D9695879537
:1017900097F90895E1E0660F771F881FBB1F621756
:1017A00073078407BA0720F0621B730B840BBA0B14
:1017B000EE1F88F7E095089504D06894B111DAC05F
:1017C0000895BDD088F09F5790F0B92F9927B75151
:1017D000A0F0D1F0660F771F881F991F1AF0BA95F5
:1017E000C9F712C0B13081F0C4D0B1E00895C1C0D2
:1017F000672F782F8827B85F39F0B93FCCF38695EB
:1018000077956795B395D9F73EF490958095709547
:1018100061957F4F8F4F9F4F0895E89409C097FBC4
:101820003EF490958095709561957F4F8F4F9F4FB7
:101830009923A9F0F92F96E9BB279395F6958795FB
:1018400077956795B795F111F8CFFAF4BB0F11F4BE
:1018500060FF1BC06F5F7F4F8F4F9F4F16C0882365
:1018600011F096E911C0772321F09EE8872F762F9B
:1018700005C0662371F096E8862F70E060E02AF0DC
:101880009A95660F771F881FDAF7880F96958795C8
:1018900097F9089597F99F6780E870E060E00895F0
:1018A0009FEF80EC0895DF93CF931F930F93FF92E8
:1018B000EF92DF927B018C01689405C0DA2EEF0174
:1018C00072D0FE01E894A5912591359145915591ED
:1018D000AEF3EF01CFD0FE019701A801DA9479F7BA
:1018E000DF90EF90FF900F911F91CF91DF910895BE
:1018F00000240A94161617061806090608950024EF
:101900000A9412161306140605060895092E039468
:10191000000C11F4882352F0BB0F40F4BF2B11F4DC
:1019200060FF04C06F5F7F4F8F4F9F4F089557FD3B
:101930009058440F551F59F05F3F71F04795880F3D
:1019400097FB991F61F09F3F79F0879508951216D4
:1019500013061406551FF2CF4695F1DF08C0161680
:1019600017061806991FF1CF869571056105089431
:101970000895E894BB2766277727CB0197F9089548
:101980009B01AC0160E070E080E89FE3ADCE0BD03E
:10199000BDCFAEDF28F0B3DF18F0952309F07ACF82
:1019A0007FCF1124E7CFC3DFA0F3959FD1F3950F2D
:1019B00050E0551F629FF001729FBB27F00DB11DD3
:1019C000639FAA27F00DB11DAA1F649F6627B00D63
:1019D000A11D661F829F2227B00DA11D621F739F4C
:1019E000B00DA11D621F839FA00D611D221F749F5A
:1019F0003327A00D611D231F849F600D211D822FA1
:101A0000762F6A2F11249F5750408AF0E1F08823E7
:101A10004AF0EE0FFF1FBB1F661F771F881F9150F4
:101A20005040A9F79E3F510570F034CFA3CF5F3FE0
:101A3000ECF3983EDCF3869577956795B795F79527
:101A4000E7959F5FC1F7FE2B880F911D96958795AF
:101A500097F908959B01AC019ACF4ADF30F04FDF30
:101A600020F031F49F3F11F41EF41ACF0EF4E095EC
:101A7000E7FB10CFE92F5BDF80F3BA17620773072C
:101A80008407950718F071F49EF573CF0EF4E09576
:101A90000B2EBA2FA02D0B01B90190010C01CA0128
:101AA000A0011124FF27591B99F0593F50F4503ED3
:101AB00068F11A16F040A22F232F342F4427585FC5
:101AC000F3CF469537952795A795F0405395C9F7DD
:101AD0007EF41F16BA0B620B730B840BBAF0915095
:101AE000A1F0FF0FBB1F661F771F881FC2F70EC034
:101AF000BA0F621F731F841F48F487957795679507
:101B0000B795F7959E3F08F0B3CF9395880F08F0EF
:101B10009927EE0F979587950895629FD001739F3F
:101B2000F001829FE00DF11D649FE00DF11D929F79
:101B3000F00D839FF00D749FF00D659FF00D9927B8
:101B4000729FB00DE11DF91F639FB00DE11DF91FDC
:101B5000BD01CF011124089597FB092E07260AD055
:101B600077FD04D049D006D000201AF47095619515
:101B70007F4F0895F6F7909581959F4F0895A1E2C4
:101B80001A2EAA1BBB1BFD010DC0AA1FBB1FEE1FF7
:101B9000FF1FA217B307E407F50720F0A21BB30B42
:101BA000E40BF50B661F771F881F991F1A9469F7BE
:101BB00060957095809590959B01AC01BD01CF011A
:101BC000089597FB092E05260ED057FD04D0D7DFC8
:101BD0000AD0001C38F450954095309521953F4F20
:101BE0004F4F5F4F0895F6F79095809570956195EA
:101BF0007F4F8F4F9F4F0895AA1BBB1B51E107C01A
:101C0000AA1FBB1FA617B70710F0A61BB70B881F8C
:101C1000991F5A95A9F780959095BC01CD0108951B
:041C2000F894FFCF66
:101C240044656275672053746172746564002C00A6
:101C3400CE049C044E024E023A02E600C800D200D2
:021C440014008A
:00000001FF
